:020000040800F2
:10000000900A0020C101000841130008CF02000837
:100010003D1300084B0400083924000800000000CC
:10002000000000000000000000000000A11D00080A
:1000300075050008000000001B020008C51E00082E
:10004000DF010008DF010008DF010008DF01000810
:10005000DF010008DF010008DF010008DF01000800
:10006000DF010008DF010008DF010008DF010008F0
:10007000DF010008DF010008DF010008DF010008E0
:10008000DF010008DF010008DF010008DF010008D0
:10009000DF010008DF010008DF010008DF010008C0
:1000A000DF010008DF010008DF010008DF010008B0
:1000B000DF010008DF010008DF010008DF010008A0
:1000C000DF010008DF010008DF010008DF01000890
:1000D000DF010008DF010008DF010008DF01000880
:1000E000DF010008DF010008DF010008DF01000870
:1000F000DF010008DF010008DF010008DF01000860
:10010000DF010008DF010008DF010008DF0100084F
:10011000DF010008DF010008DF010008DF0100083F
:10012000DF010008DF010008DF010008DF0100082F
:10013000DF010008DF010008DF010008DF0100081F
:10014000DF010008DF010008DF010008DF0100080F
:10015000DF010008DF010008DF010008DF010008FF
:10016000DF010008DF010008DF010008DF010008EF
:10017000DF010008DF010008DF010008DF010008DF
:10018000DF010008DF010008DF010008DF010008CF
:10019000DF010008DF010008DF010008DF010008BF
:1001A000DF010008DF010008DF010008DFF80CD0E4
:1001B00000F0E8F8004800473D040008900A0020DD
:1001C000074880470748804707480047FEE7FEE7A3
:1001D000FEE7FEE7FEE7FEE7FEE7FEE7FEE7FEE7F7
:1001E000E91E00088D1A0008AD010008EFF3108029
:1001F00072B6704780F310887047434A1368012B2A
:1002000004D04FF001031360404A1060404A11606F
:1002100040484FF0805101607047EFF3108272B692
:100220003948016851B34FF0000101603748016857
:1002300091B1EFF309811EF0100F08BF21ED108B73
:1002400021E9F00F4FF000041EF0100F08BF012449
:1002500041F8044D006801602D490968096808C922
:10026000B1E8F00F002B18BFB1EC108B81F30988B7
:100270004EF0100E002B18BF2EF0100E82F31088D7
:100280004EF0040E704722490860EFF3148222F00A
:10029000040282F314881D494FF0000008601A49D7
:1002A0004FF0010008601C484FF47F01D0F8002097
:1002B00041EA0201016017484FF080510160174880
:1002C0000068006880F3088861B662B670471EF067
:1002D000040F0CBFEFF30880EFF3098020E9F00F63
:1002E00040F804ED40F804ED1EF0040F0CBF80F35D
:1002F000088880F3098800B502F008FD5DF804EB7A
:100300004EF0040E70470000F0000020E8000020CE
:10031000EC00002004ED00E020ED00E008ED00E03E
:100320002DE9F05F0546002092469B46884606462A
:10033000814640241BE0284641464746224600F0BD
:1003400042F853465A46C01A914110D311461846F6
:10035000224600F029F82D1A67EB01084F46224685
:100360000120002100F020F817EB00094E41201E6B
:10037000A4F10104DFDC484631462A464346BDE885
:10038000F09F0000064C074D06E0E06840F00103D6
:1003900094E8070098471034AC42F6D3FFF70AFF01
:1003A000B8800008E8800008202A04DB203A00FA20
:1003B00002F1002070479140C2F1200320FA03F3BC
:1003C000194390407047202A04DB203A21FA02F0BA
:1003D0000021704721FA02F3D040C2F1200291407F
:1003E00008431946704770B58C1810F8015B15F07A
:1003F000070301D110F8013B2A1106D110F8012B97
:1004000003E010F8016B01F8016B5B1EF9D12B07BB
:1004100005D40023521E0DD401F8013BFAE710F871
:10042000013BCB1A921C03E013F8015B01F8015B5E
:10043000521EF9D5A142D8D3002070BD10B5FFF7E8
:10044000D5FE03F011FC002010BD00BFFEE710B583
:100450000121C80500F086FF00214FF4000000F0E4
:1004600081FF10BD01460020034A52680A400AB1CC
:10047000012000E00020704700B0024070B500216C
:10048000002200230024344D2D68344E3540324E76
:10049000356035462D68066835432F4E3560354644
:1004A0006D6B25F00705756335466D6B4668354302
:1004B000294E7563456835B9C5682902058A2A043D
:1004C000057D2B0621E04568012D05D1C56829026F
:1004D000058A2A04002318E04568022D05D1C56865
:1004E00069010569EA0200230FE04568032D06D182
:1004F000C56869010569AA024569EB0305E0C5689D
:10050000290105692A0245692B0341EA020586682B
:1005100035431D43104EB66B35430F4EB5638569A9
:10052000F56335462D6C6FF30D05356435462D6C3E
:10053000C6693543084E3564858C2C0435466D6C90
:1005400005F04045756435466D6C066A26433543B3
:10055000014E756470BD000000B00240FCE0FCFF7D
:100560000348006840F0010001490860704700003E
:1005700000B002407047000010B502460020002382
:10058000102A03D14FF02044636E0FE0B2F5807F54
:1005900002D10A4C236809E0B2F5805F03D1074C11
:1005A0002034236802E0054CD434236803EA0104B4
:1005B0008C4201D0002000E0012010BD840000A08A
:1005C0000021D0E900231A4383685B1E42EA4312EC
:1005D000C36842EA4321014A11607047500100A0FC
:1005E00070B500220021002300240568AD00A5F1AC
:1005F000C045D5F840216FF30E02D0E901563543CE
:10060000C6683543066935434669354386693543CF
:10061000C6693543066A3543466A35432A43056849
:1006200035B90568AD00A5F1C045C5F8402111E018
:100630003B4D2B686FF30E03D0E907563543466AEE
:1006400035432B43364D2B600568AD00A5F1C04501
:10065000C5F84021056875BB314D0835066855F869
:10066000261001F07041856A2D686D1E866A7668D5
:10067000761E45EA0616856AAD686D1E46EA0526B1
:10068000856AED686D1E46EA0536856A2D8A6D1EFF
:1006900046EA0546856AAD8A6D1E46EA0556856AB4
:1006A0002D7E6D1E46EA056529431D4D08350668F9
:1006B00045F8261032E0FFE7194D0835066855F871
:1006C000261001F07041856A2D686D1E866A766875
:1006D000761E45EA0616856AAD686D1E46EA052651
:1006E000856A2D8A6D1E46EA054529430C4D08355D
:1006F0002C6804F07044856AED686D1E2E03856ACF
:10070000AD8A6D1E46EA05552C434FF02045C5F8CD
:100710004841034D0835066845F8261070BD0000B5
:10072000400100A00449096841EA40014FF020421D
:10073000C2F8541170470000540100A0F0B50A46F9
:1007400000210023002400BF3DE0012505FA01F34C
:10075000156805EA03049C4234D105684F0003265E
:10076000BE40B543056015794E00B5400668354377
:1007700005601579012D02D01579022D16D18568F5
:100780004F000326BE40B543856055794E00B54005
:10079000866835438560456801268E40B5434560CF
:1007A000456896798E40B6B235434560C5684F00BE
:1007B0000326BE40B543C560D5794E00B540C66836
:1007C0003543C560491C1029BFD3F0BDF0B50023E7
:1007D00000244D07ED0E02FA05F3CE1000F12005BE
:1007E00055F826504E07F70E0F26BE40B543CF10E2
:1007F00000F1200646F82750CE1000F1200555F8EC
:10080000265045EA0304CE1000F1200545F82640A5
:10081000F0BD0246002013690B400BB1012000E03F
:100820000020704741837047018370472DE9F041F4
:1008300007460D4616464FF00008002400BF01F0A1
:100840005FFC384600F052F801281CD101F058FC3A
:10085000BB2001F0C3FC012815D100BF0DE0681ECC
:10086000A04204D1002001F01BFC305503E0012020
:1008700001F016FC3055601CC4B2AC42EFDB01F055
:1008800061FC4FF0010801F05DFC4046BDE8F081DD
:1008900010B501F0E9FC4FF400411148FFF7C2FF29
:1008A0004FF400610F48FFF7BFFF42F2107001F0F4
:1008B00079FB4FF400610B48FFF7B4FF0A4801F0E1
:1008C00071FB4FF400610748FFF7AEFF064801F0E7
:1008D00069FB01F0B7FC044801F064FB10BD0000A7
:1008E00000000240002002403057050070B5044669
:1008F00001F006FCBA2001F071FC01280AD1201297
:1009000001F06CFC012805D1E0B201F067FC012880
:1009100000D000250125284670BD00002DE9F043D8
:100920008BB00024002500260027A046A1463E48A3
:10093000807B10B93C48846805E03C48006800F5BD
:100940007F3000F5FF243848007B18B9022538486D
:10095000046003E00025364880300460022D0ED18B
:100960003148808800F47840C6122F48808800F40F
:10097000FC6047092C48007900F01F0828E0032D8F
:1009800018D12948808800F4004010B94FF00009C0
:1009900001E04FF0FF092448808800F4F8408612F7
:1009A0002148808800F4787047091F48007900F0DA
:1009B0001F080DE01C4890F804808088C0F30727CA
:1009C00019484068C0F30746174840684FEA106965
:1009D000FFF73DFD4FF440300190029505960497D6
:1009E000CDF80C80CDF818900794002008904FF4B3
:1009F000887009904FF4F0700A9001A8FFF73EFD4F
:100A0000FFF7AEFD00BF0220FFF72CFD0028FAD053
:100A1000022000F08DFC0448807BC04302498873AB
:100A20000BB0BDE8F0830000FC000020680000204F
:100A3000AC6801400149487370470000FC00002089
:100A40001CB5012140F20F7000F07CFC4FF4004017
:100A5000009003208DF8050002208DF8040000208E
:100A60008DF8060001208DF807000E220F21A64800
:100A7000FFF7ACFE0E220021A448FFF7A7FE0E22CE
:100A80000121A248FFF7A2FE0E2202219F48FFF794
:100A90009DFE0E2203219D48FFF798FE0E220421A1
:100AA0009A48FFF793FE0E2205219848FFF78EFE25
:100AB0000E2206219548FFF789FE4FF40040009072
:100AC00069469148FFF73AFE0120009069468F4839
:100AD000FFF734FE0220009069468C48FFF72EFE97
:100AE0000420009069468948FFF728FE08200090FE
:100AF00069468648FFF722FE102000906946834829
:100B0000FFF71CFE2020009069468048FFF716FE84
:100B10004020009069467D48FFF710FE0E22072115
:100B20007A48FFF753FE0E2208217848FFF74EFE61
:100B30000E2209217548FFF749FE0E220A2173484B
:100B4000FFF744FE0E220B217048FFF73FFE0E22F6
:100B500000216F48FFF73AFE0E2201216C48FFF793
:100B600035FE0E2202216A48FFF730FE80200090F9
:100B700069466648FFF7E2FD4FF4807000906946D1
:100B80006248FFF7DBFD4FF40070009069465F4854
:100B9000FFF7D4FD4FF48060009069465B48FFF793
:100BA000CDFD4FF40060009069465848FFF7C6FD40
:100BB0000120009069465648FFF7C0FD02200090D2
:100BC00069465348FFF7BAFD042000906946504833
:100BD000FFF7B4FD0E220C214C48FFF7F7FD0E2263
:100BE0000D214A48FFF7F2FD0E2211464748FFF754
:100BF000EDFD0E220F214548FFF7E8FD0E220321EF
:100C00004348FFF7E3FD0E2204214148FFF7DEFDD4
:100C10000E2205213E48FFF7D9FD0E2206213C4851
:100C2000FFF7D4FD4FF48050009069463748FFF736
:100C300085FD4FF40050009069463448FFF77EFD73
:100C40004FF48040009069463048FFF777FD4FF43D
:100C50000040009069462D48FFF770FD0820009085
:100C600069462B48FFF76AFD102000906946284826
:100C7000FFF764FD2020009069462548FFF75EFDE0
:100C80004020009069462248FFF758FD0E22114689
:100C90001D48FFF79BFD0E220C211B48FFF796FD18
:100CA0000E220D211848FFF791FD0E22072118484A
:100CB000FFF78CFD4FF48040009069461248FFF723
:100CC0003DFD4FF48050009069460F48FFF736FD18
:100CD0004FF40050009069460B48FFF72FFD80202D
:100CE000009069460A48FFF729FD01208DF80400AD
:100CF0004003009069460748FFF720FD4FF400517C
:100D00000448FFF78FFD1CBD002002400024024074
:100D100000280240000C024070B590B0002503246A
:100D200008263848384908600121880600F03AFB57
:100D30000121C80500F006FBFFF782FE04EBC400AA
:100D400010FB06F085B222460721284600F0E0FBA2
:100D5000B00300F0CBFB012000F0D4FB00BF3D202E
:100D600000F0A4FB0028FAD000200190029003902C
:100D700004900D900E900F90012005900690282071
:100D80000790082008904FF4027009904FF48C707F
:100D90000A9040F20D200B904FF490700C9001A837
:100DA00000F06CF900F036F8012000F043F9002063
:100DB000FFF740FE154800F0F5F8012000F010F9AB
:100DC000002000F0F5F84FF07F4000F077F84FF08A
:100DD000FF3000F0ADF8FFF7A1FD012000F0E8F8CA
:100DE0004FF07F4000F06AF84FF0FF3000F0A0F8BD
:100DF000FFF794FD4FF400510548FFF715FD10B0C3
:100E000070BD0000000000D0680000202800002015
:100E1000000C024000B591B0292001904FF40270FF
:100E20000290092003904FF48C70049002200590EA
:100E3000FF20069000200790089009900A904FF438
:100E400080600B9005200C904FF48870109019482A
:100E500000680D9040F2C3300E90C01E0F9001A9A3
:100E6000154800F0DAF90121134800F0CBF9002011
:100E700005904FF4C0600B9007200C900D4800685F
:100E800000F57F300D9040F283700E90C01E0F90E1
:100E900001A90948803000F0C0F9012106488030DE
:100EA00000F0B0F9012000F043FA012000F0D4F87E
:100EB00011B000BD6800002084680140F0B5002139
:100EC0000025002400220023184E367B0EB9022193
:100ED00000E0002102290DD100F47806340A00F464
:100EE0007C467209C0F3C40344EA02061E430F4F56
:100EF0007E6019E0032915D100F07F460EB9002568
:100F000001E04FF4004500F47806740A00F47846D6
:100F1000B209C0F3C40345EA040616431E43034F57
:100F20007E6001E0014E7060F0BD0000FC0000201A
:100F3000F0B500210025002400220023184E367B46
:100F40000EB9022100E0002102290DD100F478063B
:100F5000340A00F47C467209C0F3C40344EA020672
:100F60001E430F4F3E6019E0032915D100F07F4664
:100F70000EB9002501E04FF4004500F47806740A2C
:100F800000F47846B209C0F3C40345EA04061643E8
:100F90001E43034F3E6001E0014E3060F0BD000093
:100FA000FC00002001490860704700006400002038
:100FB00020B909490968094A916007E0012805D16B
:100FC0000549096801F57F31044A916003490873B6
:100FD0000021024A9173704768000020FC00002045
:100FE0000149C87370470000FC0000201CB50121B6
:100FF000482000F0A7F94FF48050009001208DF8B0
:10100000040000208DF8060001208DF80700002064
:101010008DF8050069460548FFF790FB8020009099
:1010200069460348FFF78AFB1CBD0000000C024024
:101030000018024030B10749096841F00101054A32
:10104000116005E00349096821F00101014A1160BE
:10105000704700001868014030B10749096841F441
:101060008031054A116005E00349096821F48031A7
:10107000014A11607047000018680140F0B5002176
:10108000002200230024002500265B4F3F68DFF884
:101090006CC107EA0C07DFF860C1CCF80070078A62
:1010A000390467463F68D0F814C04CEA010C47EA9F
:1010B0000C07DFF844C1CCF800700CF104073F685E
:1010C000DFF838C107EA0C07DFF82CC10CF1040C7B
:1010D000CCF80070078B3A0467463F68D0F81CC014
:1010E0004CEA020C47EA0C07DFF80CC10CF1040CC7
:1010F000CCF800700CF104073F68DFF800C107EA84
:101100000C07DFF8F4C00CF1080CCCF80070078C69
:101110003B0467463F68D0F824C04CEA030C47EA1A
:101120000C07DFF8D4C00CF1080CCCF800700CF1FF
:1011300004073F68DFF8C4C007EA0C07DFF8B8C04F
:101140000CF10C0CCCF80070078D3C046746D7F806
:1011500000C0C76A27434CEA070C274F0C37C7F873
:1011600000C03F1D3F68DFF898C007EA0C07DFF8B2
:1011700088C00CF1100CCCF80070D0E9007C47EA74
:101180000C07D0F808C047EA0C07D0F80CC047EAB3
:101190000C07DFF864C00CF1100CDCF800C047EA63
:1011A0000C07DFF854C00CF1100CCCF80070476B42
:1011B0003D02078E3E04104F24373F6807F07F47FB
:1011C000DFF834C00CF1240CCCF8007046EA0507B7
:1011D000D0F838C047EA0C07DFF81CC00CF1240C2B
:1011E000DCF800C047EA0C07DFF80CC00CF1240C57
:1011F000CCF80070F0BD00000868014000F800F075
:101200008F88FE0F21B1026842F00102026003E004
:10121000026822F00102026070472DE9F0410024CB
:1012200000250026002200270023B1F804C04FEA61
:101230000C44D0F804C00CF4704CC0F804C0D1F8D1
:1012400000C04CEA040CC0F804C0B1F80CC04FEA6E
:101250000C45D0F808C00CF4704CC0F808C0D1F8A8
:1012600008C04CEA050CC0F808C0D0F810C02CF03B
:10127000070CC0F810C0D1F810C0C0F810C0D1F8E9
:101280001CC04FEA0C26B1F820C04FEA0C4291F87E
:1012900024C04FEA0C67D0F818C09C46C0F818C0AC
:1012A000D1F818C04CEA060C4CEA020C4CEA070CC8
:1012B000C0F818C0D0F814C02CF0FF0CC0F814C04F
:1012C000D1F814C0C0F814C0D0F81CC040F20778A0
:1012D0002CEA080CC0F81CC0D1E90AC84CEA080C7A
:1012E000C0F81CC0D0F828C09C46C0F828C0D1F86F
:1012F00030C0C0F828C0B1F838C04FEA0C43D0F86D
:101300002CC00CF0E02CC0F82CC0D1F834C04CEA52
:10131000030CC0F82CC0D0F830C06FF30A0CC0F832
:1013200030C0D1F83CC0C0F830C0BDE8F08100004A
:1013300001490860704700002468014000BFFEE7D3
:101340007047000029B1064A12680243044B1A6034
:1013500004E0034A12688243014B1A6070470000A0
:101360003038024029B1064A12680243044B1A6021
:1013700004E0034A12688243014B1A607047000080
:101380001038024029B1064A12680243044B1A6021
:1013900004E0034A12688243014B1A607047000060
:1013A0003838024029B1064A12680243044B1A60D9
:1013B00004E0034A12688243014B1A607047000040
:1013C00044380240F0B50021002200240225002606
:1013D0000223324F3F6807F00C0121B1042905D0E8
:1013E000082937D105E02E4F076036E02D4F076002
:1013F00033E02A4F3F1F3F68C7F38056274F3F1FF8
:101400003F6807F03F036EB1264FB7FBF3F7DFF8F5
:101410008CC0ACF1040CDCF800C0CCF3881C07FBDA
:101420000CF40CE01E4FB7FBF3F7DFF870C0ACF123
:10143000040CDCF800C0CCF3881C07FB0CF4174F3D
:101440003F1F3F68C7F301477F1C7D00B4FBF5F7E2
:10145000076002E0124F076000BF00BF0F4F3F68F8
:1014600007F0F0010909104F7A5C0768D740476020
:101470000A4F3F6807F4E051890A0B4F7A5C4768CE
:10148000D7408760054F3F6807F46041490B064F1E
:101490007A5C4768D740C760F0BD0000083802405A
:1014A0000024F40040787D011400002010B50146AE
:1014B0000022002300204A11012A02D10A4C23688D
:1014C00008E0022A03D1084C7034236802E0064C7D
:1014D0007434236801F01F02012494401C400CB1B5
:1014E000012000E0002010BD00380240014600202D
:1014F000034A106820F44030084310607047000031
:101500008C380240014908677047000000004742DC
:1015100010B5830143EA016343EA0273014C23607F
:1015200010BD0000883802401CB501214FF4FE7048
:10153000FFF708FF02208DF8040003208DF8050056
:1015400000208DF806008DF807000C220021FE48CF
:10155000FFF73CF90C220121FB48FFF737F90C2279
:101560000221F948FFF732F90C220321F648FFF770
:101570002DF90C220421F448FFF728F90C2205214B
:10158000F148FFF723F90C221146EF48FFF71EF947
:101590000C220D21EC48FFF719F90C220E21EA4824
:1015A000FFF714F90C220F21E748FFF70FF90C227F
:1015B0000021E648FFF70AF90C220121E348FFF772
:1015C00005F9012000906946DF48FFF7B7F80220CF
:1015D00000906946DC48FFF7B1F8042000906946A6
:1015E000D948FFF7ABF8082000906946D648FFF7C6
:1015F000A5F8102000906946D348FFF79FF82020F7
:1016000000906946D048FFF799F84FF48050009059
:101610006946CD48FFF792F84FF4005000906946B4
:10162000C948FFF78BF84FF4804000906946C648E0
:10163000FFF784F84FF4004000906946C248FFF776
:101640007DF8012000906946C048FFF777F8022036
:1016500000906946BD48FFF771F80C220E21BC4886
:10166000FFF7B4F80C220F21B948FFF7AFF80C22AE
:101670000021B748FFF7AAF80C220121B448FFF770
:10168000A5F80C220721B348FFF7A0F80C22082187
:10169000B048FFF79BF80C220921AE48FFF796F8F7
:1016A0000C220A21AB48FFF791F80C220B21A94824
:1016B000FFF78CF80C221146A648FFF787F80C229A
:1016C0000D21A448FFF782F80C220E21A148FFF754
:1016D0007DF80C220F219F48FFF778F80C22082193
:1016E0009B48FFF773F80C2209219948FFF76EF821
:1016F0000C220A219648FFF769F80C220821964827
:10170000FFF764F80C2209219348FFF75FF80C22D9
:101710000A219148FFF75AF80C220B218E48FFF757
:1017200055F80C2211468C48FFF750F80C220D2179
:101730008948FFF74BF80C220E218748FFF746F83F
:101740000C220F218448FFF741F80C220021834826
:10175000FFF73CF80C2201218048FFF737F80C22F4
:1017600002217E48FFF732F80C2203217B48FFF765
:101770002DF80C2206217948FFF728F80C220721C2
:101780007648FFF723F80C2209217448FFF71EF86A
:101790000C220A217148FFF719F84FF4804000909D
:1017A00069466B48FEF7CAFF4FF400400090694657
:1017B0006748FEF7C3FF0120009069466448FEF7C2
:1017C000BDFF0220009069466148FEF7B7FF802008
:1017D000009069465F48FEF7B1FF4FF480700090BB
:1017E00069465C48FEF7AAFF4FF400700090694616
:1017F0005848FEF7A3FF4FF48060009069465548B3
:10180000FEF79CFF4FF40060009069465148FEF7D8
:1018100095FF4FF48050009069464E48FEF78EFFCA
:101820004FF40050009069464A48FEF787FF4FF496
:101830008040009069464748FEF780FF4FF4004023
:10184000009069464348FEF779FF4FF4807000909E
:1018500069463F48FEF772FF4FF4007000906946FA
:101860003B48FEF76BFF4FF48060009069463848B4
:10187000FEF764FF4FF48070009069463648FEF72B
:101880005DFF4FF40070009069463348FEF756FF45
:101890004FF48060009069462F48FEF74FFF4FF4E9
:1018A0000060009069462C48FEF748FF4FF48050D6
:1018B000009069462848FEF741FF4FF40050009021
:1018C00069462548FEF73AFF4FF48040009069468C
:1018D0002148FEF733FF4FF40040009069461E4850
:1018E000FEF72CFF0120009069461C48FEF726FFFA
:1018F0000220009069461948FEF720FF042000905E
:1019000069461648FEF71AFF0820009069461348FA
:10191000FEF714FF4020009069461048FEF70EFFC6
:101920008020009069460D48FEF708FF4FF40070D4
:10193000009069460948FEF701FF4FF4806000906F
:10194000694606480CE000000014024000180240FE
:10195000000C024000100240001C02400020024027
:10196000FEF7ECFE0C2206214248FEF72FFF0C2268
:1019700004214148FEF72AFF0C2205213E48FEF7CC
:1019800025FF0C2200213D48FEF720FF0C220B21F1
:101990003B48FEF71BFF0C220F213748FEF716FFCE
:1019A0000C2208213448FEF711FF0C220721314890
:1019B000FEF70CFF0C2201213248FEF707FF0C2234
:1019C00000213048FEF702FF0C2204212E48FEF7CA
:1019D000FDFE0C2205212C48FEF7F8FE4020009069
:1019E00069462448FEF7AAFE102000906946224866
:1019F000FEF7A4FE2020009069461F48FEF79EFED9
:101A00000120009069461D48FEF798FE4FF40060E3
:101A1000009069461A48FEF791FE4FF4004000908E
:101A200069461548FEF78AFE4FF4807000906946BB
:101A30001148FEF783FE8020009069460D48FEF7AE
:101A40007DFE0220009069460E48FEF777FE0120D9
:101A5000009069460B48FEF771FE10200090694621
:101A60000948FEF76BFE2020009069460648FEF705
:101A700065FE1CBD001C0240001802400008024028
:101A800000140240001002400020024010B592B045
:101A9000002401210846FFF775FCFFF745FD0220F1
:101AA000009007200190042002900620039002205D
:101AB00004900590069001200790002008900420D3
:101AC000099020200A9040200B904FF4C0700C9099
:101AD00000200D904FF400600E9040000F904000E9
:101AE0001090CDF844D007A8FEF77AFD00F00DF86D
:101AF00000BF05E00021A000A0F140500160641C7F
:101B0000B4F5800FF6D312B010BD1FB5002401202C
:101B1000009008200190012002900020039000BF57
:101B200020210120FEF728FD0028F9D16846FEF7A4
:101B300047FD012000F022F90220009008200190CA
:101B4000012002900020039002E06846FEF738FD75
:101B500020210120FEF710FD0028F6D1012000F021
:101B60000DF90320009008200190029000200390BE
:101B700000BF20210120FEF7FFFC0028F9D16846B4
:101B8000FEF71EFD40F23124042000900820019051
:101B900001200290039400BF20210120FEF7ECFCFD
:101BA0000028F9D16846FEF70BFD40F26A50FEF7B7
:101BB000B9FD00BF20210120FEF7DEFC0028F9D18D
:101BC0001FBD000070B50024002626A000F058FCC0
:101BD0002AA000F055FC00BF04E0A000A0F1405096
:101BE0000460641CB4F5800FF7D32EA000F048FC0D
:101BF00000240BE0A000A0F140500668A64204D0EB
:101C000030A000F03DFC002070BD641CB4F5800FD6
:101C1000F0D331A000F034FC002403E0A4F14050E4
:101C20000470641CFF2CF9D31EA000F029FC0024D2
:101C30000EE0A4F140500578E0B2A84207D032A0EF
:101C400000F01EFC38A000F01BFC0020DCE7641C48
:101C5000FF2CEED33BA000F013FC40A000F010FCE2
:101C60000120D1E753544D333246343239205344A6
:101C700052414DB2E2CAD40D0A000000B2E2CAD409
:101C8000BFAACABCA3ACD2D43332CEBBCAFDBEDD20
:101C9000BFEDB6C8D0B4C8EBCAFDBEDD2E2E2E0DEA
:101CA0000A000000D0B4C8EBCDEAB1CFA3ACB6C1F6
:101CB000C8A1CAFDBEDDB2A2B1C8BDCF2E2E2E0D69
:101CC0000A000000534452414DB2E2CAD4CAA7B040
:101CD000DCA3A1A3A10D0A003332CEBBCAFDBEDD39
:101CE000BFEDB6C8B6C1D0B4CDA8B9FDA3ACD2D4AF
:101CF00038CEBBCAFDBEDDBFEDB6C8D0B4C8EBCA96
:101D0000FDBEDD0D0A00000038CEBBCAFDBEDDBF42
:101D1000EDB6C8B6C1D0B4B2E2CAD4CAA7B0DCA38B
:101D2000A1A3A10D0A000000C7EBBCECB2E94E4232
:101D30004C30BACD4E424C31B5C4C1ACBDD30D0A06
:101D40000000000038CEBBCAFDBEDDBFEDB6C8B690
:101D5000C1D0B4CDA8B9FD0D0A00000053445241D2
:101D60004DB6C1D0B4B2E2CAD4CDA8B9FDA3ACCFB0
:101D7000B5CDB3D5FDB3A30D0A00000001B581B008
:101D800000200090054901984843009002E0009827
:101D9000401E009000980028F9D10CBDA0860100DB
:101DA000704700000CB50020019000904148006889
:101DB00040F480303F49086000BF3E48006800F4AE
:101DC000003000900198401C0190009818B90198CB
:101DD000B0F5A04FF1D13748006800F4003010B1E1
:101DE0000120009001E0002000900098012860D1BF
:101DF00030484030006840F080502E494031086043
:101E00002D48006840F440402B49086029480830BC
:101E100000682849083108600846006840F400401E
:101E200008600846006840F4A05008602348091F75
:101E30000860081F006840F08070091F086000BF3C
:101E40001C48006800F000700028F9D01A480068AB
:101E500040F480301849086000BF1748406800F41B
:101E600080300028F9D01448006840F4003012494E
:101E7000086000BF1048406800F400300028F9D026
:101E800040F205700E4908600A480830006820F0EA
:101E900003000849083108600846006840F0020065
:101EA000086000BF03480830006800F00C000828F4
:101EB000F8D10CBD0038024000700040195A4007AC
:101EC000003C024010B501F05BF80648006820B104
:101ED00004480068401E0349086001F0FBFB01F064
:101EE0005FF810BD2400002010B51548006840F4CC
:101EF0007000134908601348006840F00100114960
:101F0000086000200F49083108600E4800680E493B
:101F100008400C4908600D48091D0860081F00684A
:101F200020F48020091F0860002006490C31086059
:101F3000FFF738FF4FF0006001498039086010BD9D
:101F400088ED00E000380240FFFFF6FE103000246C
:101F500010B54FF400511148FEF764FC142000F056
:101F600021F804210E48FEF75DFC142000F01AF859
:101F70004FF400510948FEF757FC142000F012F806
:101F80004FF400510548FEF74DFC04210448FEF7CC
:101F90004BFC142000F006F810BD000000080240C1
:101FA00000040240014604E0002000E0401C0A2832
:101FB000FCDB0A1EA1F10101F6D170471CB501211D
:101FC00040F20710FFF7BEF901208DF804008DF8EC
:101FD000060000208DF807008DF805004FF4005032
:101FE000009069461748FEF7A9FB04200090694657
:101FF0001548FEF7A3FB00208DF8060001208DF8A0
:102000000700C003009069461048FEF797FB4FF4A5
:102010000060009069460E48FEF790FB4FF40051B7
:102020000848FEF701FC04210748FEF7FDFB4FF4CA
:1020300000410648FEF7F6FB4FF400610448FEF746
:10204000F3FB1CBD000802400004024000000240F7
:102050000020024010B54FF400510F48FEF7E2FB9C
:102060001420FFF79FFF04210C48FEF7DDFB14202E
:10207000FFF798FF4FF400510748FEF7D5FB1420F7
:10208000FFF790FF4FF400510348FEF7CBFB1420FD
:10209000FFF788FF10BD0000000802400004024066
:1020A00070B505460024002600BF1AE06006040E45
:1020B0004FF400511048FEF7B7FB1420FFF772FFF2
:1020C00004210E48FEF7A5FB00F0010004434FF485
:1020D00000510948FEF7A6FB1420FFF763FF701CB0
:1020E000C6B2082EE2DB012D02D1FFF731FF01E07D
:1020F000FFF7B0FF204670BD000802400004024018
:1021000010B504210D48FEF78FFB4FF400510C4829
:10211000FEF78AFB1420FFF745FF04210748FEF76E
:1021200081FB1420FFF73EFF4FF400510448FEF7F7
:1021300079FB1420FFF736FF10BD000000040240B9
:102140000008024010B54FF400510E48FEF76AFB3C
:102150001420FFF727FF04210B48FEF763FB142030
:10216000FFF720FF4FF400510648FEF75DFB1420F7
:10217000FFF718FF04210448FEF756FB1420FFF771
:1021800011FF10BD000802400004024010B50421F8
:102190001048FEF749FB1420FFF704FF4FF40051ED
:1021A0000D48FEF741FB1420FFF7FCFE042109480F
:1021B000FEF72FFB30B14FF400510748FEF732FB1A
:1021C000002010BD4FF400510348FEF72BFB012007
:1021D000F7E70000000402400008024070B5044622
:1021E000002525E004F0800020B104211348FEF70B
:1021F0001BFB03E004211148FEF714FB1420FFF73A
:10220000D1FE4FF400510E48FEF70EFB1420FFF7ED
:10221000C9FE4FF400510A48FEF704FB072D03D115
:1022200004210648FEF700FB6006040E681CC5B2D8
:10223000082DD7DBFFF7AAFF70BD000000040240A5
:10224000000802401CB500208DF804008DF807003E
:102250008DF805004FF40040009069460148FEF7F4
:102260006DFA1CBD000002401CB501208DF8040071
:1022700000208DF8060001208DF8070000208DF861
:1022800005004FF40040009069460248FEF756FAF8
:102290001CBD0000000002401FB500200090FFF7A9
:1022A0008DFEFEF7F5FA01AA0B2148F24010FEF769
:1022B000BDFA6A46012148F24700FEF7B7FA9DF8D9
:1022C0000400392802D1012004B010BD0020FBE732
:1022D0001CB501210846FFF735F802208DF80400EF
:1022E00000208DF8060001208DF8070000208DF8F1
:1022F00005004FF40070009069460A48FEF71EFA88
:102300004FF48060009069460648FEF717FA0722EE
:1023100009210448FEF75AFA07220A210148FEF76C
:1023200055FA1CBD0000024021B1828942F40052DE
:10233000828104E082894DF6FF731A4082817047E2
:1023400002460020B1F5007F00D100BF13880B408A
:102350000BB1012000E00020704700002DE9FF478D
:1023600005460E460024A14600BFA046B08900B134
:1023700000BF2C8A24F44054F08804432C82AC899A
:1023800041F20C608443B088318908437189084365
:102390000443AC81AC8A24F44074B0890443AC8219
:1023A0006846FFF70FF82048854202D01F48854253
:1023B00002D1DDF80C9001E0DDF80890A88900F466
:1023C000004040B109EBC90000EB09103168490039
:1023D000B0FBF1F707E009EBC90000EB0910316829
:1023E0008900B0FBF1F76420B7FBF0F0040120098D
:1023F000642101FB1078A88900F4004040B132202C
:1024000000EBC800B0FBF1F000F00700044308E067
:10241000322000EB08106421B0FBF1F000F00F0057
:1024200004432C81BDE8FF870010014000140140E7
:10243000C1F308028280704700BFFEE71FB501218B
:102440001020FEF7AFFFFFF743FF4FF4E13000909D
:102450000020ADF80400ADF80600ADF808000C202F
:10246000ADF80A000020ADF80C0069460348FFF7FC
:1024700075FF01210148FFF757FF1FBD0010014004
:102480000FB4054B10B503A9044A029800F048F8B0
:1024900010BC5DF814FB0000D5280008F8000020EF
:1024A000014609B900207047C8B220B1C8B20E4A2F
:1024B000105C401CF7E701F47F4028B10A48C1F3E3
:1024C0000722805C0930EEE701F47F0028B106485E
:1024D000C1F30742805C1130E5E7034800EB11606F
:1024E00000781930DFE70000847F000802E008C8A8
:1024F000121F08C1002AFAD170477047002001E07E
:1025000001C1121F002AFBD170470000034908686F
:10251000884201D0012070470020FCE7D400002051
:102520002DE9FF4F8DB09B460F460446002606E07E
:1025300025280BD05A460F999047641C761C2078AA
:102540000028F5D111B03046BDE8F08F0025A8462F
:102550000122984900E0054314F8013F203B02FAAC
:1025600003F00842F7D120782E2817D114F8010F74
:1025700045F004052A280ED06FF02F022078A0F134
:10258000300109290AD808EB880102EB410100EB70
:102590000108641CF2E757F8048B641C20786C284F
:1025A0000DD004DC4C2812D06A2811D104E0742824
:1025B0000DD07A280CD10AE045F4001507E06178C7
:1025C00045F48015814202D1641C05F58015641C18
:1025D0002278692A45D008DC002AB3D0582A69D06D
:1025E000632A10D0642A08D13BE0702A67D0732A8E
:1025F00013D0752A5CD0782A5CD010465A460F99C1
:102600009047761CD3E017F8040B8DF800000020EB
:102610008DF80100E946012003E057F8049B4FF0D4
:10262000FF3069074FF0000501D40AE06D1C4545F5
:102630000DDA8542FADB19F805100029F6D106E01B
:102640006D1C8542FCDB19F805100029F8D12E44D9
:1026500004E019F8010B5A460F9990476D1EF8D205
:10266000A5E00A200021CDE90801C5F302500228A7
:102670000DD001CFC117031E71F100030DDA4FF029
:10268000000CD0EB0C006CEB01012D2308E0FF1DCA
:1026900027F00707F7E80201EDE72B0504D52B2308
:1026A0008DF8283001233BE0EB0739D02023F7E7F2
:1026B0000A2000E010200021CDE9080107E01020E9
:1026C000002145F00405CDE908014FF00808C5F3E5
:1026D000025002280FD001CF00214FF0000A2B0733
:1026E0001FD5702A0DD0DDE908C38CF0100C5CEA10
:1026F000030C0CD015E0FF1D27F00707F7E80201D7
:10270000EBE740228DF828204FF0010A0BE050EA59
:10271000010306D030238DF828308DF829200223BC
:102720009A46582A04D024A20DF120090B9209E000
:1027300026A2F9E7DDE90823FDF7F2FD0B9B9B5C80
:1027400009F8013D50EA0102F4D1ADEB0900203057
:102750000890680701D44FF001080899884502DD08
:10276000A8EB010000E000208046002506E00AA852
:102770005A46405D0F9990476D1C761C5545F6DB17
:1027800004E030205A460F999047761CB8F10001BA
:10279000A8F10108F5DC05E019F8010B5A460F997C
:1027A0009047761C0899481E08900029F4DC641CA8
:1027B000C5E60000092801003031323334353637A0
:1027C000383961626364656600000000303132337D
:1027D000343536373839414243444546000000001D
:1027E0002DE9FC5F04468B4615461E46DDE90C9A32
:1027F000DDE90E7804F114004060006000BF1C3475
:102800006560A660C4F80C90C4F810A02321D4E938
:10281000030200F012FCD4E9033C63441A1F0F4B7F
:10282000D4E9010100F084FB2060A77667760020E0
:10283000E061C4F82880C4F82C8060612076E065EF
:1028400020661C3C00902346054A2146019004F175
:102850004C0000F0C1FF0020BDE8FC9F05340008DB
:10286000453600082DE9F04704460E4617469846BF
:10287000DDF8209084F80990607A20F00100607201
:10288000E66127620020A062C4F82480002506E0EB
:1028900004F1140101EBC50000F0ADFB6D1C012D2E
:1028A000F6DBBDE8F08710B50246002001460EE0D9
:1028B00002F1140303EBC100D0E900436360D0E9E7
:1028C000003423604060006000BF481C01460129BD
:1028D000EEDB10BD70B504460D46E1B20548FFF7CA
:1028E000A7FD00BF80210348FFF72AFD0028F9D08B
:1028F000204670BD0010014015E00B48008840F4F0
:102900008050094908804FF4FA7000F074FD0648C1
:10291000801E008840F480500349891E08804FF4CF
:10292000FA7000F068FDE8E71A0C02401FB51420A9
:1029300003214FF480620A4BCDE90032CDE9021049
:102940000023084A08A10A4800F0E4FD09A000F0AD
:1029500037FB074800F03EFE002004B010BD000029
:1029600000F40BD0F92800086C6564310000000009
:102970000C01002074687265616420696E697420BE
:1029800073756363657373200A00000010B5044615
:1029900000F0FEF8FFF7CAFF10BD00002DE9F04F70
:1029A00086B00D469C46DDE9106401960F9B04F04D
:1029B0004008B8F1000F02D0DFF8708101E0DFF8C5
:1029C0007081CDF8008004F01008B8F1000F01D03C
:1029D00024F0010404F00108B8F1000F02D04FF018
:1029E000300801E04FF02008C246002704F002083A
:1029F000B8F1000F11D0002A02DA2D2752420CE064
:102A000004F00408B8F1000F01D02B2705E004F012
:102A10000808B8F1000F00D02027002142B94FF07C
:102A2000300B8846491C0DF1080909F808B01DE073
:102A30001AE0E146B9F10A0F08D14FF00A0BB2FBD8
:102A4000FBFE0BFB1E28B2FBFBF202E002F00F08BC
:102A5000120900BFDDF8009019F808B08846491C3B
:102A60000DF1080909F808B0002AE2D1B14200DDF1
:102A70000E469B1B04F01108B8F1000F10D117B1DE
:102A8000002B00DD5B1E06E0A84203D84FF02008B3
:102A900080F80080401CB3F10008A3F10103F3DCCF
:102AA00027B1A84201D807705B1E401C04F0100833
:102AB000B8F1000F0AD104E0A84201D880F800A0C4
:102AC000401CB3F10008A3F10103F5DC06E0A842C5
:102AD00003D84FF0300880F80080401CB046761EC6
:102AE0008845F4DC08E0A84205D80DF1080818F87C
:102AF000018080F80080401CB1F10008A1F10101C3
:102B000004DDDDF80480B8F1000FECD106E0A84246
:102B100003D84FF0200880F80080401CB3F1000873
:102B2000A3F10103F3DC06B0BDE8F08F9580000847
:102B3000848000087FB50A4C14200A214FF40072EB
:102B4000084BCDE90032CDE902100023064A07A167
:102B5000204600F0DFFC0546204600F03BFD7FBD2F
:102B600090030020900100208D2900086D61696E9E
:102B70000000000010B5044C02E020688047241DCE
:102B800002488442F9D310BDAC800008B080000830
:102B900010B5044C02E020688047241D024884429E
:102BA000F9D310BDB0800008B480000810B5FDF75F
:102BB0001DFB044604480088401C00B202490880FE
:102BC0002046FDF717FB10BDC400002010B5FDF72F
:102BD0000DFB04460B480088401E00B209490880DE
:102BE0000846B0F90000002807DC002008802046D5
:102BF000FDF700FB00F09CFA02E02046FDF7FAFA30
:102C000010BD0000C400002070B51F4800684FF4DC
:102C10007A72B0FBF2F1481EB0F1807F00D31BE066
:102C2000481E4FF0E022506150170F22002807DAAB
:102C300013071D0E154B00F00F04241F1D5503E054
:102C400013071C0E124B1C5400BF00204FF0E02253
:102C500090610720106100BFFFF7F0FBFEF716FF41
:102C6000FEF7C4F9FFF718FBFEF7ACFF18B109A097
:102C7000FFF706FC02E00CA0FFF702FCFEF74CF8A1
:102C8000FFF778FF70BD00000000002018ED00E0A5
:102C900000E400E0534452414D20696E69742053B2
:102CA0007563636573730A00534452414D20696E26
:102CB0006974206661696C0A0000000010B5044662
:102CC000FFF774FF19E020780A280AD10D210E4879
:102CD000FFF7AEFB00BF80210B48FFF731FB002858
:102CE000F9D014F8011B0848FFF7A2FB00BF8021B0
:102CF0000548FFF725FB0028F9D020780028E2D10D
:102D0000FFF764FF10BD0000001001402DE9F04105
:102D1000054605F128062C1D3148006840B13046B3
:102D20002F490968884707460FB9BDE8F08100BF01
:102D30002CA0216C00F044F92EA0616A00F040F94B
:102D400030A0A16A00F03CF932A0E16A00F038F945
:102D500034A0216B00F034F936A0616800F030F93E
:102D600038A0A16800F02CF93AA0E16800F028F939
:102D70003CA0216900F024F93EA0616900F020F92F
:102D800040A0A16900F01CF942A0E16900F018F927
:102D900044A0216A00F014F946A0616B00F010F91C
:102DA00048A0A16B00F00CF94AA0E16B00F008F913
:102DB000287800F0040038B100F0E4FB07463946FB
:102DC00048A000F0FDF802E04EA000F0F9F82878E5
:102DD00000F0100010B952A000F0F2F800BFFEE7BA
:102DE000F40000207073723A203078253038780A69
:102DF000000000007230303A203078253038780AF0
:102E0000000000007230313A203078253038780ADE
:102E1000000000007230323A203078253038780ACD
:102E2000000000007230333A203078253038780ABC
:102E3000000000007230343A203078253038780AAB
:102E4000000000007230353A203078253038780A9A
:102E5000000000007230363A203078253038780A89
:102E6000000000007230373A203078253038780A78
:102E7000000000007230383A203078253038780A67
:102E8000000000007230393A203078253038780A56
:102E9000000000007231303A203078253038780A4E
:102EA000000000007231313A203078253038780A3D
:102EB000000000007231323A203078253038780A2C
:102EC00000000000206C723A203078253038780AF3
:102ED000000000002070633A203078253038780AEE
:102EE0000000000068617264206661756C74206F78
:102EF0006E207468726561643A2025730D0A0D0AAC
:102F00000000000068617264206661756C74206F57
:102F10006E2068616E646C65720D0A0D0A00000017
:102F200046505520616374697665210D0A000000E2
:102F3000F0B504460D461646301D20F00700443813
:102F40000146002203E00D4F41F82270521C112A65
:102F5000F9D34D624FF0000CC1F828C0C1F82CC065
:102F6000C1F830C0C1F834C08B63CC634FF0807CB3
:102F7000C1F840C000270F60F0BD0000EFBEADDE1D
:102F800010B5FDF733F9044604480078401C0349A6
:102F900008702046FDF72EF910BD000070000020DB
:102FA00010B5FDF723F9044604480078401E034994
:102FB00008702046FDF71EF910BD000070000020CB
:102FC0000FB438B505A800907F210848009B049AEB
:102FD00000F0AEFC04467F2C00D97F240348FFF7A5
:102FE0006DFE0020009038BC5DF814FB1005002039
:102FF0004060006070474060006070470268516048
:1030000002680A60016048607047026851600268A7
:103010000A6001604860704701460868884201D133
:10302000012070470020FCE7D0E900215160D0E981
:1030300000121160406000607047F0B50C46054614
:10304000E6B2042A15D300F0030797B9014646EA11
:10305000062343EA034304E008C108C108C108C1CC
:10306000103A102AF8D201E008C1121F042AFBD23C
:103070000D4601E005F8016B171EA2F10102F9D11E
:10308000F0BD70B5044600202072FDF7AFF805468C
:1030900004F10C00D0E900215160D0E90012116068
:1030A0004060006000BF2846FDF7A4F870BD000036
:1030B000024600210AE0074800EB01100078904228
:1030C00003D1044800EB01107047491C0529F2DBCD
:1030D0000020F9E7740000202DE9F04104460D4678
:1030E00016462846FFF7E4FF074645F080002072A9
:1030F00008223146204600F016F9FDF777F88046A1
:10310000381D04F10C010268516002680A60016018
:10311000486000BF4046FDF76DF8BDE8F08101460C
:10312000087A00F0800008B1012070470020FCE719
:103130002DE9F041FDF75AF807461B48008868BBA7
:103140001A480068FFF7ACF9461E194850F83600D7
:10315000A0F114041748006884421BD016490E7071
:103160001448056804601548007848B904F11C014A
:1031700005F11C00FDF741F83846FDF73BF80CE07F
:1031800004F11C0105F11C00FDF737F83846FDF786
:1031900031F802E03846FDF72DF802E03846FDF739
:1031A00029F8BDE8F0810000C4000020D000002014
:1031B00090050020C8000020CC00002070000020F6
:1031C00070B50446FDF712F8054614F8340F20F0E8
:1031D0000F0040F0010020706278343C0A4B03EB92
:1031E000C20004F114014268116042684A60416003
:1031F000086000BF0549A06B0968084303490860DF
:103200002846FCF7F7FF70BD90050020D000002095
:1032100070B50446FCF7EAFF054604F11400D0E956
:1032200000215160D0E9001211604060006000BFD1
:1032300094F83510094A02EBC1000168814201D1BE
:10324000012100E0002129B10548A16B00688843F5
:10325000034908602846FCF7CDFF70BD90050020AB
:10326000D000002008B509A0FFF7AAFE0AA0FFF7CA
:10327000A7FE12A0022301220321009012A0FFF753
:103280009FFE19A0FFF79CFE08BD00000A205C20ED
:103290007C202F0A000000002D205254202D2020D9
:1032A000202020546872656164204F7065726174DB
:1032B000696E672053797374656D0A0046656220F4
:1032C0003134203230313900202F207C205C202006
:1032D00020202025642E25642E2564206275696CCB
:1032E000642025730A0000002032303036202D2063
:1032F0003230313920436F707972696768742062A7
:10330000792072742D746872656164207465616DD2
:103310000A00000001460A4600E0521C107800280E
:10332000FBD1501A704770B50346A2B118460C463F
:1033300000BF14F8016B00F8016B3EB902E00025F4
:1033400000F8015B551E2A1EF9D102E0551E2A1E07
:10335000EFD100BF00BF184670BD000010B50020BF
:103360000B490880002405E00A4901EBC400FFF77F
:103370003FFE641C202CF7DB1F200749087000204B
:1033800006490860064908600648FFF731FE10BD8F
:10339000C400002090050020CC000020C8000020C0
:1033A000D0000020D400002070B508480068FFF766
:1033B00077F8451E064850F83500A0F1140405487A
:1033C000046004F11C00FCF75EFF70BDD00000201B
:1033D00090050020C800002010B5002405E0044935
:1033E00001EBC400FFF707FE641C002CF7D010BDF2
:1033F000DC000020704710B50446204600F0C8F8F5
:1034000010BD000070B512480468FCF7EFFE0546D9
:103410002046FFF7FDFE042084F8340004F14C0040
:1034200000F0CAF92046FFF77AFE012805D1A06F07
:1034300018B92046FFF725FE04E004F11401054801
:10344000FFF7DCFD2846FCF7D5FEFFF771FE70BDE7
:10345000C8000020D400002001E000F001F8FCE7E3
:1034600070B531E0FCF7C2FE0546FFF74FF818B320
:1034700018480068A0F1140404F11400D0E90021F8
:103480005160D0E9001211604060006000BFFFF79A
:103490008DFBA06F10B12046A16F88472046FFF733
:1034A0003EFE012805D1FFF791FB2846FCF7A2FE5E
:1034B00070BDFFF78BFB03E02846FCF79BFEF7E7A8
:1034C0002846FCF797FE00BFFFF720F80028C9D177
:1034D00000BFEDE7D40000201FB520201F2180226F
:1034E000074BCDE90032CDE902100023054A06A1C1
:1034F000074800F00FF8064800F06CF81FBD000008
:1035000090040020593400087469646C6500000060
:10351000100400202DE9FF5F05460C4616461F46A5
:10352000DDE910ABDDE90E89224600212846FFF7D0
:10353000D3FD3B463246214628468DE8000FFFF773
:103540004FF904B0BDE8F09F70B5044694F834001C
:1035500000F00F00022802D04FF0FF3070BDFCF7E2
:1035600045FE054604F11400FFF75EFD04F14C0032
:1035700000F0C6F92846FCF73DFE2046FFF720FE86
:103580000020EBE70148006870470000C8000020F9
:1035900031B5FCF72BFE05460D480468204600F0C7
:1035A0002FF86A46002104F14C0000F0E9F804F11C
:1035B0004C0000F029F92846FCF71CFEFFF7B8FD87
:1035C000206B801C08B900202063002038BD00005B
:1035D000C800002010B504463434A07860706178CB
:1035E000012088406060022004F834092046FFF77B
:1035F000ABFFFFF7C7FF08B1FFF79AFD002010BD32
:1036000070B5044694F8340000F00F00012802D091
:103610004FF0FF3070BDFCF7E9FD054694F834002B
:1036200020F00F0040F0020084F834002046FFF73D
:10363000EFFD04F14C0000F063F92846FCF7DAFDD9
:103640000020E7E770B5044625466FF001002863C7
:1036500005F11400FFF7E8FC2846FFF7B1FDFFF77E
:1036600067FD70BD70B5FCF7C1FD054614480468E0
:1036700094F8340000F00F0001281CD1D4E90510A3
:10368000814218D004F11400FFF7CEFC94F83520E5
:103690000C4B03EBC20004F1140142681160426854
:1036A0004A604160086000BF2846FCF7A3FDFFF7B1
:1036B0003FFD002070BD2846FCF79CFD0020F9E787
:1036C000C8000020900500200148006870470000F5
:1036D0006C00002010B50A480068401C08490860CA
:1036E000FFF750FF0446A06C401EA064A06C18B900
:1036F000606CA064FFF7B6FF00F004F810BD000096
:103700006C00002070B5FFF7DFFF0546FCF76EFD8B
:10371000064628E019480068A0F11404A06A281A97
:103720006FF0004188421DD22046FFF7BCF8D4E973
:1037300007108847FFF7C8FF0546607A00F00200CF
:1037400058B1607A00F0010038B1607A20F00100D1
:103750006072204600F058F805E0607A20F0010021
:10376000607200E004E00548FFF756FC0028D1D065
:1037700000BF3046FCF73EFD70BD0000DC000020BD
:10378000034649B1012904D0022908D0032910D1E8
:103790000AE0586A10600CE01068586209E0587A34
:1037A00020F00200587204E0587A40F0020058728B
:1037B00000BF00BF0020704770B50446FCF716FD3F
:1037C00005462046FFF76FF82846FCF713FD204614
:1037D000FFF757FC002070BD2DE9F84307460C4663
:1037E00015461E46DDE90889224609213846FFF7BD
:1037F00073FC4346324629463846CDF80090FFF721
:1038000031F8BDE8F88300002DE9F8430546FCF7E0
:10381000EDFC80462846FFF746F8687A20F0010064
:1038200068724046FCF7E6FCFFF74EFF696A084401
:10383000A862FCF7DBFC80462F4F009700242AE0AB
:1038400019E05DF824201168142202EBC402881AE2
:10385000826AAB6AD21A00D108E0826AAB6AD21AD5
:103860006FF000439A4200D20CE000BF5DF82400E4
:1038700000684DF824005DF8240007EBC401496896
:103880008842DED100BF2CB15DF824000830611CF5
:103890004DF82100641C002CD2D018480068401C50
:1038A000164908600846066805F114010098FFF7FC
:1038B000ACFB022412E006F0030060B9C4F101037E
:1038C00005F1140202EBC301C4F101025DF822000C
:1038D000FFF79BFB00E003E0B608641C012CEAD96B
:1038E00000BF687A40F0010068724046FCF782FC35
:1038F0000020BDE8F8830000DC000020E400002088
:1039000070B50446607A00F0010010B94FF0FF3046
:1039100070BDFCF76BFC05462046FEF7C4FF284649
:10392000FCF768FC607A20F0010060720020EFE78D
:103930002DE9FF4F89B0804644460A984044461E10
:10394000464504D24FF0FF36A6EB08000A906FE11F
:103950000B980078252806D0B44202D80B9800783E
:103960002070641C61E1002526E00B98401C0B9040
:103970000B9800782D2802D145F010051CE00B981B
:1039800000782B2802D145F0040515E00B9800784B
:10399000202802D145F008050EE00B980078232876
:1039A00002D145F0200507E00B980078302802D1BD
:1039B00045F0010500E000E0D7E700BF4FF0FF371A
:1039C0000B98007830380A2804D20BA800F061F96F
:1039D00007460EE00B9800782A280AD10B98401C65
:1039E0000B900C9880C80C90002F02DA7F4245F0B3
:1039F00010054FF0FF390B9800782E281CD10B983A
:103A0000401C0B900B98007830380A2804D20BA881
:103A100000F03FF981460AE00B9800782A2806D189
:103A20000B98401C0B900C9850F8049B0C90B9F12B
:103A3000000F01DA4FF00009002004900B98007885
:103A4000682803D00B9800786C2805D10B98007873
:103A500004900B98401C0B900A2005900B9800785E
:103A60006F2875D00CDC632813D004DC252870D0B7
:103A700058286FD18DE064286DD06928F9D18FE086
:103A800070286AD0732825D0752878D07828F0D18E
:103A900082E005F0100040B904E0B44201D82020D3
:103AA0002070641C781E071EF7DC0C9810F8041BAD
:103AB0000C90C8B20790B44201D807982070641CDB
:103AC00004E0B44201D820202070641C781E071E38
:103AD000F7DCAAE00C98006806900C98001D0C908A
:103AE000069808B95AA006900698FFF713FC83467B
:103AF000B9F1000F02DDCB4500DDCB4605F010002B
:103B000048B904E0B44201D820202070641C384633
:103B10007F1E5845F6DC002008900BE0B44202D826
:103B2000069800782070641C0698401C069008983F
:103B3000401C089008985845F0DB04E0B44201D8D6
:103B400020202070641C38467F1E5845F6DC6CE04F
:103B50001CE015E028E022E0FFE7781C10B90827F8
:103B600045F00105CDE9007902950C9804C81023B1
:103B700031460C902046FEF711FF044655E012E056
:103B8000B44201D825202070641C4EE00820059026
:103B90001DE045F0400500BF1020059017E000BF74
:103BA00045F0020500BF12E0B44201D82520207084
:103BB000641C0B98007830B1B44202D80B9800789E
:103BC0002070641C02E00B98401E0B902DE000BF9B
:103BD00004986C2807D10C9850F804AB0C9005F0B1
:103BE0000200B8B116E0049868280BD10C9830F8A0
:103BF000041B1FFA81FA0C9005F0020050B10FFA75
:103C00008AFA07E00C9850F804AB0C9005F002001B
:103C100000B100BFCDE900790295524631462046F9
:103C2000059BFEF7BBFE044600BF0B98401C0B90A3
:103C30000B98007800287FF48BAEB44201D8207036
:103C400001E000203070A4EB08000DB0BDE8F08F5B
:103C5000284E554C4C29000000207047002070472A
:103C6000002070470020704710B5FCF7BFFAFEF740
:103C7000CBFFFFF7F7FAFFF7AFFBFFF76FFBFEF79E
:103C800059FFFFF7B7FBFFF727FCFFF78DFB00207D
:103C900010BD0146002009E00B685A1C0A601A7822
:103CA00000EB800302EB4302A2F130000A681278B5
:103CB000303A0A2AF0D370470000000000000000EC
:103CC00000000000000000000000000000000000F4
:103CD00000000000000000000000000000000000E4
:103CE00000000000000000000000000000000000D4
:103CF00000000000000000000000000000000000C4
:103D000000000000C003C003C003C003C003C00321
:103D10008003800180018001800180018001800199
:103D200080010000000000008001C003C00380018A
:103D3000000000000000000000000000C018E01CAF
:103D4000E01C700E300618038C0184000000000097
:103D50000000000000000000000000000000000063
:103D60000000000000000000000000000000000053
:103D70000000000000000000000000000000000043
:103D80000000000020102010201020102010FE7FC6
:103D9000FE7FFE7F10081008100810081008100899
:103DA000FE7FFE7FFE7F180C080408040804080448
:103DB0000000000000000000000000000000000003
:103DC00080008000C003B00C90189818981C981CB4
:103DD000B800B000F000E000C0038007800F800C46
:103DE000801C80189C189C188C188C0C9806E0037A
:103DF0008000800080000000000000000000000043
:103E0000000000001C0836082204630463026302F9
:103E10006302630163012201B61C9C3640224063A9
:103E20004063206320631063106310220836081C6F
:103E30000000000000000000000000000000000082
:103E400000000000F00098008C018C018C018C01B6
:103E50008C00CC005C0038001C3E3C083208730823
:103E60006304E304C3048303834306678C3E781C26
:103E70000000000000000000000000001C003C00EA
:103E80003C003000300010000C0006000000000074
:103E90000000000000000000000000000000000022
:103EA0000000000000000000000000000000000012
:103EB00000000000000000000000000000400020A2
:103EC00000100018000C00040006000200030003AC
:103ED00080018001800180018001800180018001DA
:103EE000800100030003000200060004000C00181B
:103EF000001000200040000000000000020004004C
:103F0000080018003000200060004000C000C00021
:103F10008001800180018001800180018001800199
:103F20008001C000C000C000600020003000180008
:103F30000800040002000000000000000000000073
:103F400000000000000000000003800380030C63F9
:103F50001C713839600D80038003600D38391C7185
:103F60008C618003800380030000000000000000DB
:103F70000000000000000000000000000000000041
:103F8000000000000000000000000001000100012E
:103F90000001000100010001FC7F0001000100019F
:103FA000000100010001000100000000000000000D
:103FB0000000000000000000000000000000000001
:103FC00000000000000000000000000000000000F1
:103FD00000000000000000000000000000000000E1
:103FE00000000000000000001C003C003C0030000D
:103FF000300010000C00060000000000000000006F
:1040000000000000000000000000000000000000B0
:104010000000000000000000FE7F00000000000023
:104020000000000000000000000000000000000090
:104030000000000000000000000000000000000080
:104040000000000000000000000000000000000070
:104050000000000000000000000000000000000060
:10406000000000000000000018003C003C001800A8
:104070000000000000000000000000000000004000
:10408000006000200030001000180008000C000440
:10409000000600020003000180018000C000400013
:1040A0006000200030001000180008000C00040020
:1040B00006000200000000000000000000000000F8
:1040C00000000000C0036004300C18181818181005
:1040D0000C300C300C300C300C300C300C300C3000
:1040E0000C300C30181018181818300C6004C0036D
:1040F00000000000000000000000000000000000C0
:104100000000000000018001F801800180018001B1
:104110008001800180018001800180018001800197
:10412000800180018001800180018001C003F81FAF
:10413000000000000000000000000000000000007F
:1041400000000000E007101C0818043004300C3098
:104150000C30003000180018000C0006000380012D
:10416000C00040002020102008200430FC1FFC1F4D
:10417000000000000000000000000000000000003F
:1041800000000000E00318060C0C0C180C180C18AA
:1041900000180018000C0006C003000E00180010E4
:1041A000003000300C300C300C100C18180CE003F0
:1041B00000000000000000000000000000000000FF
:1041C00000000000000600060007000780068006C9
:1041D0004006200620061006100608060C060406F7
:1041E0000206FE3F00060006000600060006C03F6D
:1041F00000000000000000000000000000000000BF
:1042000000000000F03FF03F080008000800080030
:1042100008000800C807280C1818081000300030E3
:10422000003000300C300C3004180418180CE00377
:10423000000000000000000000000000000000007E
:1042400000000000800760183018101818000800DF
:1042500008000C00CC076C0C1C181C100C300C3027
:104260000C300C300C30183018103018700CC0079F
:10427000000000000000000000000000000000003E
:1042800000000000F83FF83F08100C080408040480
:104290000004000200020002000100018000800012
:1042A00080008000C000C000C000C000C000C0008E
:1042B00000000000000000000000000000000000FE
:1042C00000000000E007300C18180C300C300C30E7
:1042D0001C301C107818F004E003180F0C1E0C1C86
:1042E000063806300630063006300C18180CE0038D
:1042F00000000000000000000000000000000000BE
:1043000000000000E00318040C080C18061006302A
:1043100006300630063006300E380C341836F031D0
:1043200000300018001800080C0C0C060C03F001FB
:10433000000000000000000000000000000000007D
:10434000000000000000000000000000000000006D
:1043500000008001C003C0038001000000000000D5
:1043600000000000000000008001C003C0038001C5
:10437000000000000000000000000000000000003D
:10438000000000000000000000000000000000002D
:1043900000000000C001C001C001000000000000DA
:1043A00000000000000000000000C001C001C001CA
:1043B0008001C000C00000000000000000000000FC
:1043C00000000000002000100008000400020001AE
:1043D00080004000200010000800080010002000AD
:1043E00040008000000100020004000800100020CE
:1043F00000000000000000000000000000000000BD
:1044000000000000000000000000000000000000AC
:104410000000FE7F00000000000000000000FE7FA2
:10442000000000000000000000000000000000008C
:10443000000000000000000000000000000000007C
:104440000000000004000800100020004000800070
:104450000001000200040008001000100008000421
:10446000000200018000400020001000080004004D
:10447000000000000000000000000000000000003C
:1044800000000000C0073018183008600C601C6085
:104490001C601C6000300018000E000300010001C9
:1044A00000010001000000008001C003C003800182
:1044B00000000000000000000000000000000000FC
:1044C00000000000C0076008301018200C2B8C4D35
:1044D000844CC64CC64466446644664466466626BA
:1044E00066266417CC0C0C40082018303018C00722
:1044F00000000000000000000000000000000000BC
:1045000000000000C001C001C001C0012003200361
:104510002003200330021006100610061004F80FC6
:10452000080C080C080C04180418041806381F7C22
:10453000000000000000000000000000000000007B
:1045400000000000FE07181C18181830183018302A
:10455000183018301818180CF807181818301820C8
:104560001860186018601860186018301818FE0F6E
:10457000000000000000000000000000000000003B
:1045800000000000C0076038103018600C400C407C
:104590000C000600060006000600060006000600E5
:1045A000060006000C400C40082018103008C00718
:1045B00000000000000000000000000000000000FB
:1045C00000000000FE03180E1818181018301830DC
:1045D000186018601860186018601860186018601B
:1045E0001860182018301830181818181806FE030C
:1045F00000000000000000000000000000000000BB
:1046000000000000FE3F1830182018401840180025
:10461000180018081808180CF80F180C18081808B3
:104620001800180018001840184018201830FE3FD5
:10463000000000000000000000000000000000007A
:1046400000000000FE3F18381820184018401800DD
:10465000180018081808180CF80F180C1808180873
:1046600018081800180018001800180018007E001C
:10467000000000000000000000000000000000003A
:1046800000000000C003300C100818180C100C10AB
:10469000040006000600060006000600067E061856
:1046A000061804180C180C18081818183004E00321
:1046B00000000000000000000000000000000000FA
:1046C000000000003FFC0C300C300C300C300C3083
:1046D0000C300C300C300C30FC3F0C300C300C30FB
:1046E0000C300C300C300C300C300C300C303FFCEB
:1046F00000000000000000000000000000000000BA
:1047000000000000F81F800180018001800180010D
:104710008001800180018001800180018001800191
:104720008001800180018001800180018001F81FEB
:104730000000000000000000000000000000000079
:1047400000000000E07F00060006000600060006EC
:104750000006000600060006000600060006000629
:104760000006000600060006000600060006000619
:104770000E060E038E01FC00000000000000000089
:10478000000000007E3E180C1804180618021801DC
:10479000180198009800D800B801B8011803180350
:1047A00018061806180C180C180C181818187E7C07
:1047B00000000000000000000000000000000000F9
:1047C000000000007E0018001800180018001800F3
:1047D0001800180018001800180018001800180019
:1047E0001800180018001840184018201830FE3F14
:1047F00000000000000000000000000000000000B9
:10480000000000000FF01C381C381C381C381C3409
:1048100034343434343434323432643264326432D2
:1048200064314431C431C431C430C43084308FFC6D
:104830000000000000000000000000000000000078
:10484000000000000FF81C201C20342034206420BD
:104850006420C420C420842184210423042304264A
:104860000426042C042C04380438043004301F209F
:104870000000000000000000000000000000000038
:1048800000000000C003300C181808100C300C3069
:104890000620066006600660066006600660066028
:1048A000066004600C300C3008101818300CC0037F
:1048B00000000000000000000000000000000000F8
:1048C00000000000FE0F18181830186018601860FB
:1048D00018601860186018301818F80718001800C9
:1048E00018001800180018001800180018007E00A2
:1048F00000000000000000000000000000000000B8
:1049000000000000C003300C181808100C300C30E8
:104910000660066006600660066006600660066067
:1049200006600660E4211C331C36181E300EC007DA
:10493000004C003C003800000000000000000000B7
:1049400000000000FE07181C181818301830183026
:10495000183018301818180CF80718031803180620
:1049600018061806180C180C180C181818187E7849
:104970000000000000000000000000000000000037
:1049800000000000F013181E0C1806180610061080
:1049900006000E003C00F800E003800F001E001827
:1049A000003802300230063004300C181C0CE407CA
:1049B00000000000000000000000000000000000F7
:1049C00000000000FC3F8C21846182418241800113
:1049D00080018001800180018001800180018001CF
:1049E0008001800180018001800180018001E00759
:1049F00000000000000000000000000000000000B7
:104A0000000000003F7C0C100C100C100C100C105F
:104A10000C100C100C100C100C100C100C100C10B6
:104A20000C100C100C100C100C1018083804E003BB
:104A30000000000000000000000000000000000076
:104A4000000000003E7818301810181018103008B8
:104A500030083008300830046004600460046002EC
:104A6000C002C002C002C00180018001800080003D
:104A70000000000000000000000000000000000036
:104A800000000000CFF386618621842104210C23DD
:104A90008C238C238C138C138813481258165816A9
:104AA000580E380E300E300E300C30041004100446
:104AB00000000000000000000000000000000000F6
:104AC000000000003E7C1810180830083004600414
:104AD0006002C002C00180018001800180034003A8
:104AE00040062006200E100C100C181808383E7CCA
:104AF00000000000000000000000000000000000B6
:104B0000000000007E7C1C101810180830083008C7
:104B1000300460046004C002C002C0018001800152
:104B20008001800180018001800180018001E00717
:104B30000000000000000000000000000000000075
:104B400000000000F87F383018300C180418000CF2
:104B5000000600060003000380018001C000C000C1
:104B6000600060003000184018600C200C38FE3FD8
:104B70000000000000000000000000000000C03F36
:104B8000C000C000C000C000C000C000C000C00025
:104B9000C000C000C000C000C000C000C000C00015
:104BA000C000C000C000C000C000C000C000C00005
:104BB000C000C03F00000000000000000000000036
:104BC0000000180018001000300020006000600095
:104BD0004000C0008000800180010001000300024D
:104BE00000060006000C000C000C00180018003035
:104BF0000030003000600000000000000000FC03F6
:104C0000000300030003000300030003000300038C
:104C1000000300030003000300030003000300037C
:104C2000000300030003000300030003000300036C
:104C30000003FC030000000000000000C003C007E8
:104C400060041008000000000000000000000000E8
:104C50000000000000000000000000000000000054
:104C60000000000000000000000000000000000044
:104C70000000000000000000000000000000000034
:104C80000000000000000000000000000000000024
:104C90000000000000000000000000000000000014
:104CA0000000000000000000000000000000000004
:104CB000000000000000FFFF000000007800C000BE
:104CC00000010000000000000000000000000000E3
:104CD00000000000000000000000000000000000D4
:104CE00000000000000000000000000000000000C4
:104CF00000000000000000000000000000000000B4
:104D000000000000000000000000000000000000A3
:104D10000000E007180C0C180C180C18001CE01B05
:104D200038180C1806180618061806980C9EF87104
:104D30000000000000000000000000000000000073
:104D4000000010001E0018001800180018001800BD
:104D500018009807581C3818383018301830183098
:104D6000183018301830183018103818380CC80798
:104D70000000000000000000000000000000000033
:104D80000000000000000000000000000000000023
:104D90000000C0077008301818180C180C000C0020
:104DA0000C000C000C000C20182018103008C00754
:104DB00000000000000000000000000000000000F3
:104DC00000000010001E001800180018001800183D
:104DD0000018E01B301C181818180C180C180C18A8
:104DE0000C180C180C180C180818181C307AE0094C
:104DF00000000000000000000000000000000000B3
:104E000000000000000000000000000000000000A2
:104E10000000C003300C101818100C300C300C308F
:104E2000FC3F0C000C000C00182018107018C00774
:104E30000000000000000000000000000000000072
:104E400000000000003E80618060C060C000C000C3
:104E5000C000FC1FC000C000C000C000C000C000F7
:104E6000C000C000C000C000C000C000C000F80FFB
:104E70000000000000000000000000000000000032
:104E80000000000000000000000000000000000022
:104E90000000C077306C101818181818181810185F
:104EA000300CF00718001800F803F01F18380C3009
:104EB0000C300C301818E007000000000000000063
:104EC000000010001E00180018001800180018003C
:104ED00018009807580C38181818181818181818A7
:104EE00018181818181818181818181818187E7E76
:104EF00000000000000000000000000000000000B2
:104F0000000000008001C0038001000000000000DC
:104F10000001F80180018001800180018001800191
:104F20008001800180018001800180018001F81FE3
:104F30000000000000000000000000000000000071
:104F400000000000001C001E000C0000000000001B
:104F50000008C00F000C000C000C000C000C000C32
:104F6000000C000C000C000C000C000C000C000CE1
:104F7000000C18061802F0010000000000000000FC
:104F8000000010001E00180018001800180018007B
:104F90001800183E180C1804180218019801D801BE
:104FA000780338031806180C180C181818387E7C6B
:104FB00000000000000000000000000000000000F1
:104FC00000000001F8018001800180018001800162
:104FD00080018001800180018001800180018001C9
:104FE0008001800180018001800180018001F81F23
:104FF00000000000000000000000000000000000B1
:1050000000000000000000000000000000000000A0
:105010000400F73C8E6386618661866186618661E5
:105020008661866186618661866186618661CFF36D
:105030000000000000000000000000000000000070
:105040000000000000000000000000000000000060
:10505000000090075E0C381818181818181818183F
:1050600018181818181818181818181818187E7EF4
:105070000000000000000000000000000000000030
:105080000000000000000000000000000000000020
:105090000000C003300C1018181808300C300C3009
:1050A0000C300C300C300C3018181818300CC003B1
:1050B00000000000000000000000000000000000F0
:1050C00000000000000000000000000000000000E0
:1050D000000090075E0C381818101830183018307F
:1050E000183018301830183018183818780C9807FD
:1050F0001800180018007E000000000000000000EA
:10510000000000000000000000000000000000009F
:105110000000C013301E181C18180C180C180C189E
:105120000C180C180C180C180818181C301EE01954
:10513000001800180018007E0000000000000000A9
:10514000000000000000000000000000000000005F
:10515000000060387E666061E001E0006000600091
:105160006000600060006000600060006000FE079A
:10517000000000000000000000000000000000002F
:10518000000000000000000000000000000000001F
:105190000000C02760383030302030207000E0033D
:1051A000800F001E00380830083018303818C80F3B
:1051B00000000000000000000000000000000000EF
:1051C0000000000000000000800080008000C0009F
:1051D000E000FC1FC000C000C000C000C000C00054
:1051E000C000C000C000C000C020C0208011000F5F
:1051F00000000000000000000000000000000000AF
:10520000000000000000000000000000000000009E
:1052100010101E1E18181818181818181818181812
:1052200018181818181818181818181C307AE009C7
:10523000000000000000000000000000000000006E
:10524000000000000000000000000000000000005E
:1052500000003E7C18301810181830083008200460
:1052600060046004C002C002C003800180018000AD
:10527000000000000000000000000000000000002E
:10528000000000000000000000000000000000001E
:105290000000DFF3866184218C218C218C1388131C
:1052A00058135812580E700E300E300C3004200473
:1052B00000000000000000000000000000000000EE
:1052C00000000000000000000000000000000000DE
:1052D00000007C3E300870086004C002C0028001FB
:1052E0008001800340062006200C101818183E7E0E
:1052F00000000000000000000000000000000000AE
:10530000000000000000000000000000000000009D
:1053100000003E7C181818081008300820046004AB
:1053200060044002C0028002800180018000800091
:10533000800040007C003C000000000000000000F5
:10534000000000000000000000000000000000005D
:105350000000FC1F0C1C0C0C040604070003800159
:10536000C001C00060007020302018300C18FC1FF5
:1053700000000000000000000000000000300008F5
:1053800000040004000400040004000400040004FD
:105390000004000400040003800100020004000473
:1053A00000040004000400040004000400040004DD
:1053B00000040008003000000001000100010001AD
:1053C00000010001000100010001000100010001D5
:1053D00000010001000100010001000100010001C5
:1053E00000010001000100010001000100010001B5
:1053F0000001000100010001000000001800200071
:10540000400040004000400040004000400040009C
:105410004000400040008001000380004000400048
:10542000400040004000400040004000400040007C
:10543000400020001800000000007800C4008241F5
:1054400002410027001C00000000000000000000D6
:10545000000000000000000000000000000000004C
:10546000000000000000000000000000000000003C
:10547000000000000000000000000000000000002C
:10548000000000000000000000000000000000001C
:10549000000000000000000000000000000000000C
:1054A00000000000000000000000000000000000FC
:1054B000600060006000600060006000600040000C
:1054C00020002000200000000000000060006000BC
:1054D00060000000000000000000000060066006A0
:1054E0003003980188004400000000000000000024
:1054F00000000000000000000000000000000000AC
:10550000000000000000000000000000000000009B
:105510001002100210021002FE07FE070802080126
:10552000080108010801FE07FE0704010401040147
:105530000401000000000000000000000000400026
:105540004000F00158034C03CC034C00580070009D
:10555000E000C001C00140034C035C034C03480160
:10556000F0004000400000000000000000000000CB
:105570000E010A01910091009100510051003A0082
:10558000AE03A002500450044804480448048402B6
:105590008403000000000000000000000000000084
:1055A00038006C006C006C006C006C002C009807DC
:1055B0001C011A01330133016301E300C308C6096A
:1055C0003C07000000000000000000000C001C0070
:1055D000100010000800040000000000000000009F
:1055E00000000000000000000000000000000000BB
:1055F00000000000000000000000000000040002A5
:1056000000018000800040004000200020002000B9
:10561000200020002000200040004000800080008A
:10562000000100020004000000000000020004006D
:105630000800100010002000200040004000400042
:1056400040004000400040002000200010001000FA
:10565000080004000200000000000000000000003C
:10566000000000004000C0004000460C4E0FD0017A
:10567000F0015E0F460C40004000400000000000BA
:10568000000000000000000000000000000000001A
:1056900000000000000040004000400040004000CA
:1056A000FE0F4000400040004000400000000000AD
:1056B00000000000000000000000000000000000EA
:1056C00000000000000000000000000000000000DA
:1056D0000000000000000000000000000C001C00A2
:1056E000100010000800040000000000000000008E
:1056F00000000000000000000000000000000000AA
:10570000FE07000000000000000000000000000094
:105710000000000000000000000000000000000089
:105720000000000000000000000000000000000079
:105730000000000000000000000000001C001C0031
:105740001C00000000000000000000000004000633
:1057500000020003000100018000800040004000C2
:1057600060002000200010001000080008000C005D
:10577000040006000200000000000000000000001D
:105780000000F00098010C030C030606060606064E
:10579000060606060606060606060C030C03980116
:1057A000F000000000000000000000000000000009
:1057B000000040007C00600060006000600060004D
:1057C00060006000600060006000600060006000D9
:1057D000FC030000000000000000000000000000CA
:1057E0000000F80084010203060306030003000121
:1057F0008001C000600020001000080204020602C0
:10580000FE03000000000000000000000000000097
:1058100000007800C6008601860180018001C0007A
:1058200070008001000100030003060306038601E7
:10583000F800000000000000000000000000000070
:10584000000080018001C001A001A0019001880139
:10585000880184018201FE0F8001800180018001A6
:10586000E007000000000000000000000000000051
:105870000000FC0304000400040004000400F40021
:105880008C01040300030003060306038201840164
:10589000F800000000000000000000000000000010
:1058A0000000E00118030C030C0004000600E601F0
:1058B00016030E0606060606060604060C02180364
:1058C000F0000000000000000000000000000000E8
:1058D0000000F8070C06040204010001000180002A
:1058E00080004000400040006000600060006000F8
:1058F0006000000000000000000000000000000048
:105900000000F8010C030606060606060C021C033E
:10591000F000C8010C0306060606060606060C0380
:10592000F001000000000000000000000000000086
:105930000000F0000C010C0306020606060606062F
:1059400006078C0678060006000300030C018C0194
:1059500078000000000000000000000000000000CF
:10596000000000000000000000000000E000E00077
:10597000E00000000000000000000000E000E00087
:10598000E000000000000000000000000000000037
:105990000000000000000000000000006000600047
:1059A0000000000000000000000000000000600097
:1059B0006000400020002000000000000000000007
:1059C00000040002000180004000200010000800D8
:1059D00004000800100020004000800000010002C8
:1059E00000040000000000000000000000000000B3
:1059F000000000000000000000000000FE070000A2
:105A000000000000FE070000000000000000000091
:105A10000000000000000000000000000000000086
:105A20000400080010002000400080000001000277
:105A30000004000200018000400020001000080067
:105A40000400000000000000000000000000000052
:105A50000000E0031806040C040C0C0C0C0C0007EE
:105A6000800140004000400000000000E000E00035
:105A7000E000000000000000000000000000000046
:105A8000E00018030C02CC0564056605A605B60403
:105A9000B604B604B604B602E4010C040C02180302
:105AA000F000000000000000000000000000000006
:105AB0000000600060005000D0009000900088005E
:105AC00088010801F801040304030402020202062B
:105AD0000F0F0000000000000000000000000000A8
