:020000040800F2
:1000000098040020C1010008151600082D080008FA
:1000100011160008090300089527000800000000D9
:100020000000000000000000000000007520000833
:100030003504000800000000171600089921000888
:10004000DF010008DF010008DF010008DF01000810
:10005000DF010008DF010008DF010008DF01000800
:10006000DF010008DF010008DF010008DF010008F0
:10007000DF010008DF010008DF010008DF010008E0
:10008000DF010008DF010008DF010008DF010008D0
:10009000DF010008DF010008DF010008DF010008C0
:1000A000DF010008DF010008DF010008DF010008B0
:1000B000DF010008DF010008DF010008DF010008A0
:1000C000DF010008DF010008DF010008DF01000890
:1000D000DF010008DF010008DF010008DF01000880
:1000E000DF010008DF010008DF010008DF01000870
:1000F000DF010008DF010008DF010008DF01000860
:10010000DF010008DF010008DF010008DF0100084F
:10011000DF010008DF010008DF010008DF0100083F
:10012000DF010008DF010008DF010008DF0100082F
:10013000DF010008DF010008DF010008DF0100081F
:10014000DF010008DF010008DF010008DF0100080F
:10015000DF010008DF010008DF010008DF010008FF
:10016000DF010008DF010008DF010008DF010008EF
:10017000DF010008DF010008DF010008DF010008DF
:10018000DF010008DF010008DF010008DF010008CF
:10019000DF010008DF010008DF010008DF010008BF
:1001A000DF010008DF010008DF010008DFF80CD0E4
:1001B00000F04EF800480047012B0008980400208A
:1001C000074880470748804707480047FEE7FEE7A3
:1001D000FEE7FEE7FEE7FEE7FEE7FEE7FEE7FEE7F7
:1001E000B1210008611D0008AD0100082DE9F05F94
:1001F0000546002092469B46884606468146402496
:100200001BE0284641464746224600F042F8534646
:100210005A46C01A914110D311461846224600F0A2
:1002200029F82D1A67EB01084F46224601200021CC
:1002300000F020F817EB00094E41201EA4F1010444
:10024000DFDC484631462A464346BDE8F09F0000C1
:10025000064C074D06E0E06840F0010394E8070013
:1002600098471034AC42F6D3FFF7A4FFAC6E0008F9
:10027000DC6E0008202A04DB203A00FA02F100209C
:1002800070479140C2F1200320FA03F319439040D4
:100290007047202A04DB203A21FA02F0002170473F
:1002A00021FA02F3D040C2F12002914008431946DE
:1002B000704770B58C1810F8015B15F0070301D179
:1002C00010F8013B2A1106D110F8012B03E010F8B9
:1002D000016B01F8016B5B1EF9D12B0705D40023DC
:1002E000521E0DD401F8013BFAE710F8013BCB1A7E
:1002F000921C03E013F8015B01F8015B521EF9D573
:10030000A142D8D3002070BD00BFFEE710B5012187
:10031000C80501F091F900214FF4000001F08CF9BB
:1003200010BD000001460020034A52680A400AB18D
:10033000012000E00020704700B0024070B50021AD
:10034000002200230024344D2D68344E3540324EB7
:10035000356035462D68066835432F4E3560354685
:100360006D6B25F00705756335466D6B4668354343
:10037000294E7563456835B9C5682902058A2A047E
:10038000057D2B0621E04568012D05D1C5682902B0
:10039000058A2A04002318E04568022D05D1C568A6
:1003A00069010569EA0200230FE04568032D06D1C3
:1003B000C56869010569AA024569EB0305E0C568DE
:1003C000290105692A0245692B0341EA020586686D
:1003D00035431D43104EB66B35430F4EB5638569EB
:1003E000F56335462D6C6FF30D05356435462D6C80
:1003F000C6693543084E3564858C2C0435466D6CD2
:1004000005F04045756435466D6C066A26433543F4
:10041000014E756470BD000000B00240FCE0FCFFBE
:100420000348006840F0010001490860704700007F
:1004300000B00240704701B56422009901FB02F050
:1004400000F002F808BD000001B5044900980860FA
:1004500000BF024800680028FBD108BD240000202E
:1004600010B5024600200023102A03D14FF020448B
:10047000636E0FE0B2F5807F02D10A4C236809E079
:10048000B2F5805F03D1074C2034236802E0054CAD
:10049000D434236803EA01048C4201D0002000E038
:1004A000012010BD840000A00021D0E900231A43E0
:1004B00083685B1E42EA4312C36842EA4321014A51
:1004C00011607047500100A070B500220021002388
:1004D00000240568AD00A5F1C045D5F840216FF3B3
:1004E0000E02D0E901563543C668354306693543E7
:1004F0004669354386693543C6693543066A3543DF
:10050000466A35432A43056835B90568AD00A5F14B
:10051000C045C5F8402111E03B4D2B686FF30E0339
:10052000D0E907563543466A35432B43364D2B6099
:100530000568AD00A5F1C045C5F84021056875BB4B
:10054000314D0835066855F8261001F07041856A6E
:100550002D686D1E866A7668761E45EA0616856ADF
:10056000AD686D1E46EA0526856AED686D1E46EA91
:100570000536856A2D8A6D1E46EA0546856AAD8A6E
:100580006D1E46EA0556856A2D7E6D1E46EA056596
:1005900029431D4D0835066845F8261032E0FFE76F
:1005A000194D0835066855F8261001F07041856A26
:1005B0002D686D1E866A7668761E45EA0616856A7F
:1005C000AD686D1E46EA0526856A2D8A6D1E46EACF
:1005D000054529430C4D08352C6804F07044856AA4
:1005E000ED686D1E2E03856AAD8A6D1E46EA0555BF
:1005F0002C434FF02045C5F84841034D08350668A7
:1006000045F8261070BD0000400100A004490968AB
:1006100041EA40014FF02042C2F8541170470000F7
:10062000540100A0F0B50A4600210023002400BFB9
:100630003DE0012505FA01F3156805EA03049C4233
:1006400034D105684F000326BE40B54305601579D7
:100650004E00B5400668354305601579012D02D07E
:100660001579022D16D185684F000326BE40B5438B
:10067000856055794E00B54086683543856045688C
:1006800001268E40B5434560456896798E40B6B2E6
:1006900035434560C5684F000326BE40B543C5607D
:1006A000D5794E00B540C6683543C560491C102950
:1006B000BFD3F0BDF0B5002300244D07ED0E02FAC4
:1006C00005F3CE1000F1200555F826504E07F70E21
:1006D0000F26BE40B543CF1000F1200646F8275044
:1006E000CE1000F1200555F8265045EA0304CE103F
:1006F00000F1200545F82640F0BD024600201369B0
:100700000B400BB1012000E000207047418370478F
:10071000018370472DE9F04107460D4616464FF01C
:100720000008002400BF01F04FFE384600F067F8D3
:1007300001281CD101F048FEBB2001F0B3FE0128C6
:1007400015D100BF0DE0681EA04204D1002001F0C9
:100750000BFE305503E0012001F006FE3055601C11
:10076000C4B2AC42EFDB01F051FE4FF0010801F0E2
:100770004DFE4046BDE8F08110B501F0D9FE4FF4C2
:1007800000411148FFF7C2FF4FF400610F48FFF727
:10079000BFFF42F2107001F069FD4FF400610B4899
:1007A000FFF7B4FF0A4801F061FD4FF4006107480C
:1007B000FFF7AEFF064801F059FD01F0A7FE04481F
:1007C00001F054FD10BD0000000002400020024076
:1007D0003057050070B506460C4601F0F5FD304671
:1007E00000F00DF8012805D1204601F05BFE01283C
:1007F00000D0002501F00AFE0125284670BD70B525
:10080000044601F0E1FDBA2001F04CFE01280AD1B6
:10081000201201F047FE012805D1E0B201F042FEAE
:10082000012800D000250125284670BD00BFFEE745
:1008300010B5002000F0CEF9344800F01DFD002076
:1008400000F020FD4FF07F4000F0DCFC304800F06D
:100850009FFC00F0E3F82FA214210A2000F0C0F959
:10086000012000F00FFD314800F092FC00F0D6F8B6
:100870004FF0506000F0C6FC2D4800F089FC2DA21E
:100880003C210A2000F0ACF94FF04C5000F0BAFCCB
:10089000314800F07DFC31A25A210A2000F0A0F975
:1008A0004FF0CC4000F0AEFC354800F071FC35A2B2
:1008B00078210A2000F094F94FF0194000F0A2FCD2
:1008C000394800F065FC39A296210A2000F088F929
:1008D0004FF04C4000F096FC3D4800F059FC3DA222
:1008E000B4210A2000F07CF94FF07F4000F08AFC30
:1008F0006FF07F0000F04CFC3FA2D2210A2000F0F4
:100900006FF94FF47A70FFF796FD10BD34000020A8
:10091000FF8080FF202053544D333246343239203B
:100920004C4344204C6179657220300080FFFF0009
:1009300080FFFF0D2053544D333246343239204C62
:100940004344204C6179657220312C416C706861A0
:100950003A3935252020000080FFFF332053544DC5
:10096000333246343239204C4344204C617965722D
:1009700020312C416C7068613A383025202000000D
:1009800080FFFF662053544D333246343239204CB9
:100990004344204C6179657220312C416C70686150
:1009A0003A3630252020000080FFFF992053544D17
:1009B000333246343239204C4344204C61796572DD
:1009C00020312C416C7068613A34302520200000C1
:1009D00080FFFFCC2053544D333246343239204C03
:1009E0004344204C6179657220312C416C70686100
:1009F0003A323025202000002053544D3332463403
:100A00003239204C4344204C6179657220312C41AD
:100A10006C7068613A203025202000002DE9F043F9
:100A20008BB00024002500260027A046A1463E48A2
:100A3000807B10B93C48846805E03C48006800F5BC
:100A40007F3000F5FF243848007B18B9022538486C
:100A5000046003E00025364880300460022D0ED18A
:100A60003148808800F47840C6122F48808800F40E
:100A7000FC6047092C48007900F01F0828E0032D8E
:100A800018D12948808800F4004010B94FF00009BF
:100A900001E04FF0FF092448808800F4F8408612F6
:100AA0002148808800F4787047091F48007900F0D9
:100AB0001F080DE01C4890F804808088C0F30727C9
:100AC00019484068C0F30746174840684FEA106964
:100AD000FFF71CFC4FF440300190029505960497F7
:100AE000CDF80C80CDF818900794002008904FF4B2
:100AF000887009904FF4F0700A9001A8FFF71EFC6F
:100B0000FFF78EFC00BF0220FFF70CFC0028FAD094
:100B1000022000F077FD0448807BC04302498873BF
:100B20000BB0BDE8F08300008800002068000020C2
:100B3000AC6801402DE9F04704468846154600267A
:100B4000B1462746A5F12000C5B200BF36E01F48D8
:100B5000006800681D490968098905FB016110F8F2
:100B600001A04FF0000923E00AF0010030B118485D
:100B700041460268384600F04DF805E01448414609
:100B80004268384600F046F84FEA6A0A781C87B295
:100B9000381B0E4909688988884205D1274608F123
:100BA00001001FFA80F806E009F101001FFA80F940
:100BB000B9F1080FD8DB00BF701C86B2034800688B
:100BC0000089B042C3DCBDE8F0870000640000206B
:100BD0008800002001494873704700008800002009
:100BE00070B505460E4614460AE02278314628467E
:100BF000FFF7A0FF064800688088284485B2641C7F
:100C0000B5F5F07F02DA20780028EED170BD000043
:100C100064000020F0B5002300243A4DAD7B35B9C7
:100C2000394D2D6805F57F3505F5FF2301E0354D7C
:100C3000AB68344D2D7B0DB9022400E00024BCB913
:100C4000304D6D7B35B9C1EB011500EB451543F80F
:100C5000252055E02B4D6D7B012D51D1C0F58875B8
:100C60006D1EC5EB051501EB451543F8252047E042
:100C7000012C2ED1234D6D7B85B9C1EB011600EB04
:100C8000461606EB46069A53150CC1EB011600EB0F
:100C90004616032707FB0636B57031E0194D6D7B0C
:100CA000012D2DD1C0F588756D1EC5EB051501EB25
:100CB000451505EB45055A53160CC0F588756D1E94
:100CC000C5EB051501EB4515032707FB0535AE7090
:100CD00016E00C4D6D7B35B9C1EB011600EB4616E5
:100CE00023F816200CE0074D6D7B012D08D1C0F5CF
:100CF00088756D1EC5EB051501EB451523F815200C
:100D0000F0BD000088000020680000201CB5012113
:100D100040F20F7000F080FC4FF400400090032080
:100D20008DF8050002208DF8040000208DF80600E3
:100D300001208DF807000E220F21A648FFF7BAFC0C
:100D40000E220021A448FFF7B5FC0E220121A24883
:100D5000FFF7B0FC0E2202219F48FFF7ABFC0E22EA
:100D600003219D48FFF7A6FC0E2204219A48FFF7B5
:100D7000A1FC0E2205219848FFF79CFC0E220621BB
:100D80009548FFF797FC4FF4004000906946914862
:100D9000FFF748FC0120009069468F48FFF742FCAE
:100DA0000220009069468C48FFF73CFC042000902C
:100DB00069468948FFF736FC082000906946864856
:100DC000FFF730FC1020009069468348FFF72AFCAB
:100DD0002020009069468048FFF724FC40200090C6
:100DE00069467D48FFF71EFC0E2207217A48FFF76F
:100DF00061FC0E2208217848FFF75CFC0E220921D5
:100E00007548FFF757FC0E220A217348FFF752FC82
:100E10000E220B217048FFF74DFC0E2200216F4877
:100E2000FFF748FC0E2201216C48FFF743FC0E221D
:100E300002216A48FFF73EFC802000906946664820
:100E4000FFF7F0FB4FF48070009069466248FFF7AF
:100E5000E9FB4FF40070009069465F48FFF7E2FB42
:100E60004FF48060009069465B48FFF7DBFB4FF46E
:100E70000060009069465848FFF7D4FB01200090BD
:100E800069465648FFF7CEFB02200090694653485A
:100E9000FFF7C8FB0420009069465048FFF7C2FBEB
:100EA0000E220C214C48FFF705FC0E220D214A486A
:100EB000FFF700FC0E2211464748FFF7FBFB0E220E
:100EC0000F214548FFF7F6FB0E2203214348FFF7A9
:100ED000F1FB0E2204214148FFF7ECFB0E22052115
:100EE0003E48FFF7E7FB0E2206213C48FFF7E2FBF6
:100EF0004FF48050009069463748FFF793FB4FF45A
:100F00000050009069463448FFF78CFB4FF4804056
:100F1000009069463048FFF785FB4FF40040009091
:100F200069462D48FFF77EFB0820009069462B4854
:100F3000FFF778FB1020009069462848FFF772FB06
:100F40002020009069462548FFF76CFB4020009068
:100F500069462248FFF766FB0E2211461D48FFF73F
:100F6000A9FB0E220C211B48FFF7A4FB0E220D212A
:100F70001848FFF79FFB0E2207211848FFF79AFB3E
:100F80004FF48040009069461248FFF74BFB4FF446
:100F90008050009069460F48FFF744FB4FF4005023
:100FA000009069460B48FFF73DFB802000906946A2
:100FB0000A48FFF737FB01208DF80400400300903A
:100FC00069460748FFF72EFB4FF400510448FFF72E
:100FD0009DFB1CBD0020024000240240002802406E
:100FE000000C024070B590B00025032408263A4852
:100FF0003A4908600121880600F03EFB0121C8053E
:1010000000F00AFBFFF782FE00F0AAFE04EBC4002A
:1010100010FB06F085B222460721284600F0E2FBCD
:10102000B00300F0CDFB012000F0D6FB00BF3D2057
:1010300000F0A6FB0028FAD0002001900290039057
:1010400004900D900E900F9001200590069028209E
:101050000790082008904FF4027009904FF48C70AC
:101060000A9040F20D200B904FF490700C9001A864
:1010700000F06EF900F038F8012000F045F900208A
:10108000FFF7A8FD164800F0F7F8012000F012F96C
:10109000002000F0F7F84FF07F4000F079F84FF0B3
:1010A000FF3000F0AFF8FFF7B9FC012000F0EAF8DC
:1010B0004FF07F4000F06CF84FF0FF3000F0A2F8E6
:1010C000FFF7ACFCC820FFF7B6F94FF40051054814
:1010D000FFF71EFB10B070BD000000D068000020BC
:1010E00028000020000C024000B591B0292001909A
:1010F0004FF402700290092003904FF48C7004901A
:1011000002200590FF20069000200790089009908B
:101110000A904FF480600B9005200C904FF488707B
:101120001090194800680D9040F2C3300E90C01E18
:101130000F9001A9154800F0DAF90121134800F0D9
:10114000CBF9002005904FF4C0600B9007200C9065
:101150000D48006800F57F300D9040F283700E90CE
:10116000C01E0F9001A90948803000F0C0F901218C
:101170000648803000F0B0F9012000F043FA012069
:1011800000F0D4F811B000BD680000208468014070
:10119000F0B500210025002400220023184E367BE4
:1011A0000EB9022100E0002102290DD100F47806D9
:1011B000340A00F47C467209C0F3C40344EA020610
:1011C0001E430F4F7E6019E0032915D100F07F46C2
:1011D0000EB9002501E04FF4004500F47806740ACA
:1011E00000F47846B209C0F3C40345EA0406164386
:1011F0001E43034F7E6001E0014E7060F0BD0000B1
:1012000088000020F0B500210025002400220023E2
:10121000184E367B0EB9022100E0002102290DD1C3
:1012200000F47806340A00F47C467209C0F3C40363
:1012300044EA02061E430F4F3E6019E0032915D110
:1012400000F07F460EB9002501E04FF4004500F4A0
:101250007806740A00F47846B209C0F3C40345EA7C
:10126000040616431E43034F3E6001E0014E30600A
:10127000F0BD0000880000200149086070470000B0
:101280006400002020B909490968094A916007E013
:10129000012805D10549096801F57F31044A9160AB
:1012A000034908730021024A9173704768000020C7
:1012B000880000200149C8737047000088000020A2
:1012C0001CB50121482000F0A7F94FF48050009090
:1012D00001208DF8040000208DF8060001208DF813
:1012E000070000208DF8050069460548FFF79AF9C8
:1012F0008020009069460348FFF794F91CBD000068
:10130000000C02400018024030B10749096841F062
:101310000101054A116005E00349096821F0010156
:10132000014A1160704700001868014030B1074958
:10133000096841F48031054A116005E003490968F4
:1013400021F48031014A11607047000018680140A3
:10135000F0B50021002200230024002500265B4F69
:101360003F68DFF86CC107EA0C07DFF860C1CCF812
:101370000070078A390467463F68D0F814C04CEA09
:10138000010C47EA0C07DFF844C1CCF800700CF1FF
:1013900004073F68DFF838C107EA0C07DFF82CC103
:1013A0000CF1040CCCF80070078B3A0467463F68D8
:1013B000D0F81CC04CEA020C47EA0C07DFF80CC15D
:1013C0000CF1040CCCF800700CF104073F68DFF856
:1013D00000C107EA0C07DFF8F4C00CF1080CCCF8E8
:1013E0000070078C3B0467463F68D0F824C04CEA85
:1013F000030C47EA0C07DFF8D4C00CF1080CCCF85A
:1014000000700CF104073F68DFF8C4C007EA0C075E
:10141000DFF8B8C00CF10C0CCCF80070078D3C0460
:101420006746D7F800C0C76A27434CEA070C274F26
:101430000C37C7F800C03F1D3F68DFF898C007EAC7
:101440000C07DFF888C00CF1100CCCF80070D0E964
:10145000007C47EA0C07D0F808C047EA0C07D0F830
:101460000CC047EA0C07DFF864C00CF1100CDCF884
:1014700000C047EA0C07DFF854C00CF1100CCCF8A0
:101480000070476B3D02078E3E04104F24373F68C3
:1014900007F07F47DFF834C00CF1240CCCF8007063
:1014A00046EA0507D0F838C047EA0C07DFF81CC049
:1014B0000CF1240CDCF800C047EA0C07DFF80CC084
:1014C0000CF1240CCCF80070F0BD0000086801405D
:1014D00000F800F08F88FE0F21B1026842F001028F
:1014E000026003E0026822F00102026070472DE909
:1014F000F041002400250026002200270023B1F837
:1015000004C04FEA0C44D0F804C00CF4704CC0F88E
:1015100004C0D1F800C04CEA040CC0F804C0B1F813
:101520000CC04FEA0C45D0F808C00CF4704CC0F861
:1015300008C0D1F808C04CEA050CC0F808C0D0F8C3
:1015400010C02CF0070CC0F810C0D1F810C0C0F8C3
:1015500010C0D1F81CC04FEA0C26B1F820C04FEAE9
:101560000C4291F824C04FEA0C67D0F818C09C4692
:10157000C0F818C0D1F818C04CEA060C4CEA020CAE
:101580004CEA070CC0F818C0D0F814C02CF0FF0CBF
:10159000C0F814C0D1F814C0C0F814C0D0F81CC0F2
:1015A00040F207782CEA080CC0F81CC0D1E90AC840
:1015B0004CEA080CC0F81CC0D0F828C09C46C0F803
:1015C00028C0D1F830C0C0F828C0B1F838C04FEA00
:1015D0000C43D0F82CC00CF0E02CC0F82CC0D1F893
:1015E00034C04CEA030CC0F82CC0D0F830C06FF304
:1015F0000A0CC0F830C0D1F83CC0C0F830C0BDE81B
:10160000F081000001490860704700002468014033
:1016100000BFFEE77047704729B1064A12680243CF
:10162000044B1A6004E0034A12688243014B1A60BB
:10163000704700003038024029B1064A1268024360
:10164000044B1A6004E0034A12688243014B1A609B
:10165000704700001038024029B1064A1268024360
:10166000044B1A6004E0034A12688243014B1A607B
:10167000704700003838024029B1064A1268024318
:10168000044B1A6004E0034A12688243014B1A605B
:101690007047000044380240F0B5002100220024C9
:1016A000022500260223324F3F6807F00C0121B1CA
:1016B000042905D0082937D105E02E4F076036E010
:1016C0002D4F076033E02A4F3F1F3F68C7F3805616
:1016D000274F3F1F3F6807F03F036EB1264FB7FB10
:1016E000F3F7DFF88CC0ACF1040CDCF800C0CCF3ED
:1016F000881C07FB0CF40CE01E4FB7FBF3F7DFF878
:1017000070C0ACF1040CDCF800C0CCF3881C07FB03
:101710000CF4174F3F1F3F68C7F301477F1C7D0044
:10172000B4FBF5F7076002E0124F076000BF00BF8F
:101730000F4F3F6807F0F0010909104F7A5C076806
:10174000D74047600A4F3F6807F4E051890A0B4FC2
:101750007A5C4768D7408760054F3F6807F460416F
:10176000490B064F7A5C4768D740C760F0BD000060
:10177000083802400024F40040787D011400002065
:1017800010B501460022002300204A11012A02D18F
:101790000A4C236808E0022A03D1084C70342368FD
:1017A00002E0064C7434236801F01F0201249440C7
:1017B0001C400CB1012000E0002010BD00380240A8
:1017C00001460020034A106820F4403008431060AE
:1017D000704700008C3802400149086770470000DC
:1017E0000000474210B5830143EA016343EA0273F4
:1017F000014C236010BD0000883802401CB5012157
:101800004FF4FE70FFF708FF02208DF8040003205C
:101810008DF8050000208DF806008DF807000C22D9
:101820000021FE48FEF746FF0C220121FB48FEF78F
:1018300041FF0C220221F948FEF73CFF0C22032154
:10184000F648FEF737FF0C220421F448FEF732FF7A
:101850000C220521F148FEF72DFF0C221146EF481E
:10186000FEF728FF0C220D21EC48FEF723FF0C2287
:101870000E21EA48FEF71EFF0C220F21E748FEF773
:1018800019FF0C220021E648FEF714FF0C2201216B
:10189000E348FEF70FFF012000906946DF48FEF79E
:1018A000C1FE022000906946DC48FEF7BBFE042022
:1018B00000906946D948FEF7B5FE082000906946B9
:1018C000D648FEF7AFFE102000906946D348FEF7D9
:1018D000A9FE202000906946D048FEF7A3FE4FF4F1
:1018E000805000906946CD48FEF79CFE4FF40050B2
:1018F00000906946C948FEF795FE4FF4804000907D
:101900006946C648FEF78EFE4FF4004000906946D7
:10191000C248FEF787FE012000906946C048FEF7E6
:1019200081FE022000906946BD48FEF77BFE0C2236
:101930000E21BC48FEF7BEFE0C220F21B948FEF76F
:10194000B9FE0C220021B748FEF7B4FE0C2201219B
:10195000B448FEF7AFFE0C220721B348FEF7AAFEFB
:101960000C220821B048FEF7A5FE0C220921AE4842
:10197000FEF7A0FE0C220A21AB48FEF79BFE0C22CC
:101980000B21A948FEF796FE0C221146A648FEF749
:1019900091FE0C220D21A448FEF78CFE0C220E2194
:1019A000A148FEF787FE0C220F219F48FEF782FE1A
:1019B0000C2208219B48FEF77DFE0C220921994844
:1019C000FEF778FE0C220A219648FEF773FE0C22E1
:1019D00008219648FEF76EFE0C2209219348FEF777
:1019E00069FE0C220A219148FEF764FE0C220B21AD
:1019F0008E48FEF75FFE0C2211468C48FEF75AFE19
:101A00000C220D218948FEF755FE0C220E21874835
:101A1000FEF750FE0C220F218448FEF74BFE0C22ED
:101A200000218348FEF746FE0C2201218048FEF784
:101A300041FE0C2202217E48FEF73CFE0C220321CF
:101A40007B48FEF737FE0C2206217948FEF732FE6E
:101A50000C2207217648FEF72DFE0C22092174483E
:101A6000FEF728FE0C220A217148FEF723FE4FF4F0
:101A70008040009069466B48FEF7D4FD4FF400406B
:101A8000009069466748FEF7CDFD01200090694649
:101A90006448FEF7C7FD0220009069466148FEF7E2
:101AA000C1FD8020009069465F48FEF7BBFD4FF402
:101AB0008070009069465C48FEF7B4FD4FF40070FA
:101AC000009069465848FEF7ADFD4FF480600090E5
:101AD00069465548FEF7A6FD4FF400600090694640
:101AE0005148FEF79FFD4FF48050009069464E48E4
:101AF000FEF798FD4FF40050009069464A48FEF703
:101B000091FD4FF48040009069464748FEF78AFDFA
:101B10004FF40040009069464348FEF783FD4FF4C0
:101B20008070009069463F48FEF77CFD4FF40070DE
:101B3000009069463B48FEF775FD4FF480600090C9
:101B400069463848FEF76EFD4FF480700090694694
:101B50003648FEF767FD4FF4007000906946334841
:101B6000FEF760FD4FF48060009069462F48FEF755
:101B700059FD4FF40060009069462C48FEF752FD75
:101B80004FF48050009069462848FEF74BFD4FF413
:101B90000050009069462548FEF744FD4FF4804010
:101BA000009069462148FEF73DFD4FF4004000904B
:101BB00069461E48FEF736FD0120009069461C4824
:101BC000FEF730FD0220009069461948FEF72AFD15
:101BD0000420009069461648FEF724FD0820009076
:101BE00069461348FEF71EFD4020009069461048E4
:101BF000FEF718FD8020009069460D48FEF712FDA3
:101C00004FF40070009069460948FEF70BFD4FF451
:101C100080600090694606480CE000000014024015
:101C200000180240000C024000100240001C02405C
:101C300000200240FEF7F6FC0C2206214248FEF787
:101C400039FD0C2204214148FEF734FD0C22052108
:101C50003E48FEF72FFD0C2200213D48FEF72AFDED
:101C60000C220B213B48FEF725FD0C220F213748A3
:101C7000FEF720FD0C2208213448FEF71BFD0C2244
:101C800007213148FEF716FD0C2201213248FEF7EC
:101C900011FD0C2200213048FEF70CFD0C2204211E
:101CA0002E48FEF707FD0C2205212C48FEF702FD09
:101CB0004020009069462448FEF7B4FC10200090B4
:101CC00069462248FEF7AEFC2020009069461F4876
:101CD000FEF7A8FC0120009069461D48FEF7A2FC13
:101CE0004FF40060009069461A48FEF79BFC4FF4E1
:101CF0000040009069461548FEF794FC4FF4807050
:101D0000009069461148FEF78DFC802000906946DE
:101D10000D48FEF787FC0220009069460E48FEF74A
:101D200081FC0120009069460B48FEF77BFC1020E7
:101D3000009069460948FEF775FC2020009069462E
:101D40000648FEF76FFC1CBD001C02400018024054
:101D5000000802400014024000100240002002402F
:101D600010B592B0002401210846FFF775FCFFF77B
:101D700045FD0220009007200190042002900620DB
:101D80000390022004900590069001200790002007
:101D900008900420099020200A9040200B904FF4D6
:101DA000C0700C9000200D904FF400600E90400029
:101DB0000F9040001090CDF844D007A8FEF784FBA8
:101DC00000F00DF800BF05E00021A000A0F1405098
:101DD0000160641CB4F5800FF6D312B010BD1FB5BE
:101DE0000024012000900820019001200290002092
:101DF000039000BF20210120FEF732FB0028F9D11B
:101E00006846FEF751FB012000F022F90220009005
:101E100008200190012002900020039002E0684613
:101E2000FEF742FB20210120FEF71AFB0028F6D125
:101E3000012000F00DF9032000900820019002908D
:101E40000020039000BF20210120FEF709FB00289D
:101E5000F9D16846FEF728FB40F2312404200090B7
:101E60000820019001200290039400BF202101204E
:101E7000FEF7F6FA0028F9D16846FEF715FB40F2A6
:101E80006A50FEF7C3FB00BF20210120FEF7E8FAED
:101E90000028F9D11FBD000070B50024002626A03F
:101EA00000F09CFC2AA000F099FC00BF04E0A00018
:101EB000A0F140500460641CB4F5800FF7D32EA04D
:101EC00000F08CFC00240BE0A000A0F1405006685C
:101ED000A64204D030A000F081FC002070BD641C3C
:101EE000B4F5800FF0D331A000F078FC002403E0BB
:101EF000A4F140500470641CFF2CF9D31EA000F024
:101F00006DFC00240EE0A4F140500578E0B2A84238
:101F100007D032A000F062FC38A000F05FFC002087
:101F2000DCE7641CFF2CEED33BA000F057FC40A084
:101F300000F054FC0120D1E753544D333246343283
:101F40003920534452414DB2E2CAD40D0A00000078
:101F5000B2E2CAD4BFAACABCA3ACD2D43332CEBB7D
:101F6000CAFDBEDDBFEDB6C8D0B4C8EBCAFDBEDD4C
:101F70002E2E2E0D0A000000D0B4C8EBCDEAB1CF52
:101F8000A3ACB6C1C8A1CAFDBEDDB2A2B1C8BDCF67
:101F90002E2E2E0D0A000000534452414DB2E2CACB
:101FA000D4CAA7B0DCA3A1A3A10D0A003332CEBBD3
:101FB000CAFDBEDDBFEDB6C8B6C1D0B4CDA8B9FD6F
:101FC000A3ACD2D438CEBBCAFDBEDDBFEDB6C8D0FF
:101FD000B4C8EBCAFDBEDD0D0A00000038CEBBCA96
:101FE000FDBEDDBFEDB6C8B6C1D0B4B2E2CAD4CA38
:101FF000A7B0DCA3A1A3A10D0A000000C7EBBCECB5
:10200000B2E94E424C30BACD4E424C31B5C4C1ACAF
:10201000BDD30D0A0000000038CEBBCAFDBEDDBF37
:10202000EDB6C8B6C1D0B4CDA8B9FD0D0A00000008
:10203000534452414DB6C1D0B4B2E2CAD4CDA8B9CE
:10204000FDA3ACCFB5CDB3D5FDB3A30D0A00000001
:1020500001B581B0002000900549019848430090E7
:1020600002E00098401E009000980028F9D10CBDB5
:10207000A0860100704700000CB500200190009080
:102080004148006840F480303F49086000BF3E4846
:10209000006800F4003000900198401C0190009806
:1020A00018B90198B0F5A04FF1D13748006800F495
:1020B000003010B10120009001E000200090009855
:1020C000012860D130484030006840F080502E49EF
:1020D000403108602D48006840F440402B490860BA
:1020E0002948083000682849083108600846006817
:1020F00040F4004008600846006840F4A0500860C2
:102100002348091F0860081F006840F08070091FFD
:10211000086000BF1C48006800F000700028F9D07B
:102120001A48006840F480301849086000BF17481A
:10213000406800F480300028F9D01448006840F46A
:1021400000301249086000BF1048406800F40030B9
:102150000028F9D040F205700E4908600A4808309E
:10216000006820F00300084908310860084600684C
:1021700040F00200086000BF03480830006800F02B
:102180000C000828F8D10CBD003802400070004057
:10219000195A4007003C02400448006820B1034837
:1021A0000068401E014908607047000024000020BC
:1021B00010B51548006840F47000134908601348D2
:1021C000006840F001001149086000200F49083103
:1021D00008600E4800680E4908400C4908600D4828
:1021E000091D0860081F006820F48020091F08608E
:1021F000002006490C310860FFF73EFF4FF00060F9
:1022000001498039086010BD88ED00E000380240C7
:10221000FFFFF6FE1030002410B54FF400511148B6
:10222000FEF774FA142000F021F804210E48FEF79E
:102230006DFA142000F01AF84FF400510948FEF727
:1022400067FA142000F012F84FF400510548FEF729
:102250005DFA04210448FEF75BFA142000F006F84A
:1022600010BD00000008024000040240014604E0E6
:10227000002000E0401C0A28FCDB0A1EA1F101013D
:10228000F6D170471CB5012140F20710FFF7C4F9E1
:1022900001208DF804008DF8060000208DF807005D
:1022A0008DF805004FF40050009069461748FEF77E
:1022B000B9F90420009069461548FEF7B3F90020EB
:1022C0008DF8060001208DF80700C00300906946D4
:1022D0001048FEF7A7F94FF40060009069460E48D9
:1022E000FEF7A0F94FF400510848FEF711FA042157
:1022F0000748FEF70DFA4FF400410648FEF706FACC
:102300004FF400610448FEF703FA1CBD00080240C8
:1023100000040240000002400020024010B54FF4CB
:1023200000510F48FEF7F2F91420FFF79FFF042138
:102330000C48FEF7EDF91420FFF798FF4FF4005119
:102340000748FEF7E5F91420FFF790FF4FF400511E
:102350000348FEF7DBF91420FFF788FF10BD0000EB
:10236000000802400004024070B505460024002623
:1023700000BF1AE06006040E4FF400511048FEF74B
:10238000C7F91420FFF772FF04210E48FEF7B5F9D4
:1023900000F0010004434FF400510948FEF7B6F97C
:1023A0001420FFF763FF701CC6B2082EE2DB012D7C
:1023B00002D1FFF731FF01E0FFF7B0FF204670BD0B
:1023C000000802400004024010B504210D48FEF749
:1023D0009FF94FF400510C48FEF79AF91420FFF7CB
:1023E00045FF04210748FEF791F91420FFF73EFF4F
:1023F0004FF400510448FEF789F91420FFF736FF27
:1024000010BD0000000402400008024010B54FF467
:1024100000510E48FEF77AF91420FFF727FF042138
:102420000B48FEF773F91420FFF720FF4FF400511B
:102430000648FEF76DF91420FFF718FF0421044841
:10244000FEF766F91420FFF711FF10BD00080240E7
:102450000004024010B504211048FEF759F9142079
:10246000FFF704FF4FF400510D48FEF751F9142017
:10247000FFF7FCFE04210948FEF73FF930B14FF4A5
:1024800000510748FEF742F9002010BD4FF40051FB
:102490000348FEF73BF90120F7E700000004024083
:1024A0000008024070B50446002525E004F08000D5
:1024B00020B104211348FEF72BF903E00421114851
:1024C000FEF724F91420FFF7D1FE4FF400510E4817
:1024D000FEF71EF91420FFF7C9FE4FF400510A4819
:1024E000FEF714F9072D03D104210648FEF710F971
:1024F0006006040E681CC5B2082DD7DBFFF7AAFFE3
:1025000070BD000000040240000802401CB500201D
:102510008DF804008DF807008DF805004FF4004099
:10252000009069460148FEF77DF81CBD000002409E
:102530001CB501208DF8040000208DF80600012054
:102540008DF8070000208DF805004FF40040009042
:1025500069460248FEF766F81CBD00000000024014
:102560001FB500200090FFF78DFEFEF705F901AAC8
:102570000B2148F24010FEF7CDF86A46012148F2DF
:102580004700FEF7C7F89DF80400392802D1012062
:1025900004B010BD0020FBE710B58CB0002401AAE8
:1025A0002A2148F24E10FEF7B5F8002148F24E10ED
:1025B000FEF710F99DF8040000F00F001A4948706A
:1025C0000846407801282ADB08464078052826DCA2
:1025D00000BF1CE0E000001D01A9095CE000401DF7
:1025E00001AA105C41EA00210F480C3020F81410B9
:1025F000E000801C01A9095CE000C01C105C41EAFD
:1026000000210948801C20F81410601CC4B2064840
:102610004078A042DEDC01200349087002E000207F
:10262000014908700CB010BD700000201CB50121DC
:102630000846FEF7F1FF02208DF8040000208DF817
:10264000060001208DF8070000208DF805004FF4EA
:102650000070009069460A48FDF7E4FF4FF480607F
:10266000009069460648FDF7DDFF0722092104486E
:10267000FEF720F807220A210148FEF71BF81CBDCF
:102680000000024021B1828942F40052828104E0BC
:1026900082894DF6FF731A408281704702460020FE
:1026A000B1F5007F00D100BF13880B400BB10120B2
:1026B00000E00020704700002DE9FF4705460E4668
:1026C0000024A14600BFA046B08900B100BF2C8AFB
:1026D00024F44054F08804432C82AC8941F20C600D
:1026E0008443B08831890843718908430443AC812D
:1026F000AC8A24F44074B0890443AC826846FEF787
:10270000CBFF2048854202D01F48854202D1DDF828
:102710000C9001E0DDF80890A88900F4004040B179
:1027200009EBC90000EB091031684900B0FBF1F773
:1027300007E009EBC90000EB091031688900B0FB24
:10274000F1F76420B7FBF0F004012009642101FBDC
:102750001078A88900F4004040B1322000EBC80096
:10276000B0FBF1F000F00700044308E0322000EB7A
:1027700008106421B0FBF1F000F00F0004432C813D
:10278000BDE8FF870010014000140140C1F30802BA
:102790008280704700BFFEE71FB501211020FEF7C1
:1027A0006BFFFFF743FF4FF4E13000900020ADF8DE
:1027B0000400ADF80600ADF808000C20ADF80A00E2
:1027C0000020ADF80C0069460348FFF775FF0121B2
:1027D0000148FFF757FF1FBD001001400FB4054B24
:1027E00010B503A9044A029800F018F810BC5DF86F
:1027F00014FB0000DD2A00086C00002002E008C87D
:10280000121F08C1002AFAD170477047002001E06A
:1028100001C1121F002AFBD1704700002DE9FF4FB4
:102820008DB09B460F460446002606E025280BD0B7
:102830005A460F999047641C761C20780028F5D1E1
:1028400011B03046BDE8F08F0025A8460122984916
:1028500000E0054314F8013F203B02FA03F0084270
:10286000F7D120782E2817D114F8010F45F0040570
:102870002A280ED06FF02F022078A0F1300109290C
:102880000AD808EB880102EB410100EB0108641C47
:10289000F2E757F8048B641C20786C280DD004DC18
:1028A0004C2812D06A2811D104E074280DD07A285F
:1028B0000CD10AE045F4001507E0617845F4801575
:1028C000814202D1641C05F58015641C2278692AB6
:1028D00045D008DC002AB3D0582A69D0632A10D02A
:1028E000642A08D13BE0702A67D0732A13D0752A76
:1028F0005CD0782A5CD010465A460F999047761CD7
:10290000D3E017F8040B8DF8000000208DF80100CB
:10291000E946012003E057F8049B4FF0FF306907B8
:102920004FF0000501D40AE06D1C45450DDA8542E3
:10293000FADB19F805100029F6D106E06D1C854276
:10294000FCDB19F805100029F8D12E4404E019F831
:10295000010B5A460F9990476D1EF8D2A5E00A2048
:102960000021CDE90801C5F3025002280DD001CFA6
:10297000C117031E71F100030DDA4FF0000CD0EB0C
:102980000C006CEB01012D2308E0FF1D27F0070769
:10299000F7E80201EDE72B0504D52B238DF828304D
:1029A00001233BE0EB0739D02023F7E70A2000E0C2
:1029B00010200021CDE9080107E01020002145F09A
:1029C0000405CDE908014FF00808C5F302500228BC
:1029D0000FD001CF00214FF0000A2B071FD5702A1E
:1029E0000DD0DDE908C38CF0100C5CEA030C0CD0B0
:1029F00015E0FF1D27F00707F7E80201EBE740228B
:102A00008DF828204FF0010A0BE050EA010306D0B0
:102A100030238DF828308DF8292002239A46582A31
:102A200004D024A20DF120090B9209E026A2F9E7B7
:102A3000DDE90823FDF7DAFB0B9B9B5C09F8013D00
:102A400050EA0102F4D1ADEB09002030089068078C
:102A500001D44FF001080899884502DDA8EB010078
:102A600000E000208046002506E00AA85A46405DA6
:102A70000F9990476D1C761C5545F6DB04E030201D
:102A80005A460F999047761CB8F10001A8F1010849
:102A9000F5DC05E019F8010B5A460F999047761CB2
:102AA0000899481E08900029F4DC641CC5E6000063
:102AB0000928010030313233343536373839616214
:102AC00063646566000000003031323334353637D8
:102AD00038394142434445460000000070B5044681
:102AE0000D46E1B20548FFF751FE00BF80210348C3
:102AF000FFF7D4FD0028F9D0204670BD001001403A
:102B000024480068244AB0FBF2F1481EB0F1807FEF
:102B100000D31BE0481E4FF0E022506150170F22F7
:102B2000002807DA13071D0E1C4B00F00F04241FAA
:102B30001D5503E013071C0E194B1C5400BF002049
:102B40004FF0E02290610720106100BFFFF724FEE4
:102B5000FFF706F9FEF7B4FBFFF702FDFEF742FAB6
:102B6000FFF79AF918B10FA0FFF738FE02E012A0A4
:102B7000FFF734FE0DE0FDF75BFEFFF70DFD134898
:102B80000078012805D111488289418810A0FFF7FB
:102B900025FEF0E700000020A086010018ED00E00F
:102BA00000E400E0534452414D20696E69742053A3
:102BB0007563636573730A00534452414D20696E17
:102BC0006974206661696C0A0000000070000020D2
:102BD000D7F8B1EAD6B5A3BA25642C25640A00005B
:102BE00000000000000000000000000000000000E5
:102BF00000000000000000000000000000000000D5
:102C000000000000000000000000000000000000C4
:102C100000000000000000000000000000000000B4
:102C2000000000000000000000000000C003C0031E
:102C3000C003C003C003C003800380018001800182
:102C400080018001800180018001000000000000FF
:102C50008001C003C00380010000000000000000EC
:102C600000000000C018E01CE01C700E30061803C5
:102C70008C01840000000000000000000000000043
:102C80000000000000000000000000000000000044
:102C90000000000000000000000000000000000034
:102CA00000000000000000000000000020102010C4
:102CB000201020102010FE7FFE7FFE7F10081008DD
:102CC0001008100810081008FE7FFE7FFE7F180C09
:102CD00008040804080408040000000000000000C4
:102CE000000000000000000080008000C003B00C65
:102CF00090189818981C981CB800B000F000E000DC
:102D0000C0038007800F800C801C80189C189C18C2
:102D10008C188C0C9806E003800080008000000076
:102D20000000000000000000000000001C08360841
:102D300022046304630263026302630163012201EC
:102D4000B61C9C36402240634063206320631063BE
:102D5000106310220836081C00000000000000006C
:102D6000000000000000000000000000F0009800DB
:102D70008C018C018C018C018C00CC005C00380033
:102D80001C3E3C08320873086304E304C304830355
:102D9000834306678C3E781C0000000000000000A2
:102DA000000000001C003C003C003000300010001F
:102DB0000C00060000000000000000000000000001
:102DC0000000000000000000000000000000000003
:102DD00000000000000000000000000000000000F3
:102DE000000000000040002000100018000C00044B
:102DF00000060002000300038001800180018001C1
:102E00008001800180018001800100030003000235
:102E100000060004000C0018001000200040000014
:102E2000000000000200040008001800300020002C
:102E300060004000C000C00080018001800180016E
:102E400080018001800180018001C000C000C000BD
:102E5000600020003000180008000400020000009C
:102E60000000000000000000000000000000000062
:102E70000003800380030C631C713839600D8003EC
:102E80008003600D38391C718C61800380038003DE
:102E90000000000000000000000000000000000032
:102EA0000000000000000000000000000000000022
:102EB000000000010001000100010001000100010B
:102EC000FC7F000100010001000100010001000180
:102ED00000000000000000000000000000000000F2
:102EE00000000000000000000000000000000000E2
:102EF00000000000000000000000000000000000D2
:102F000000000000000000000000000000000000C1
:102F10001C003C003C003000300010000C0006009B
:102F200000000000000000000000000000000000A1
:102F30000000000000000000000000000000000091
:102F4000FE7F000000000000000000000000000004
:102F50000000000000000000000000000000000071
:102F60000000000000000000000000000000000061
:102F70000000000000000000000000000000000051
:102F80000000000000000000000000000000000041
:102F900018003C003C001800000000000000000089
:102FA0000000000000000040006000200030001021
:102FB00000180008000C00040006000200030001D5
:102FC00080018000C0004000600020003000100040
:102FD000180008000C0004000600020000000000B9
:102FE000000000000000000000000000C0036004BA
:102FF000300C1818181818100C300C300C300C301D
:103000000C300C300C300C300C300C301810181800
:103010001818300C6004C00300000000000000001D
:10302000000000000000000000000000000180011E
:10303000F801800180018001800180018001800110
:103040008001800180018001800180018001800178
:1030500080018001C003F81F000000000000000094
:10306000000000000000000000000000E007101C4D
:103070000818043004300C300C30003000180018F0
:10308000000C000600038001C0004000202010203A
:1030900008200430FC1FFC1F00000000000000009E
:1030A000000000000000000000000000E00318061F
:1030B0000C0C0C180C180C1800180018000C00064A
:1030C000C003000E00180010003000300C300C302F
:1030D0000C100C18180CE0030000000000000000A9
:1030E00000000000000000000000000000060006D4
:1030F000000700078006800640062006200610060E
:10310000100608060C0604060206FE3F000600062E
:10311000000600060006C03F00000000000000009E
:10312000000000000000000000000000F03FF03F41
:10313000080008000800080008000800C807280C5C
:103140001818081000300030003000300C300C30FF
:1031500004180418180CE003000000000000000030
:103160000000000000000000000000008007601860
:10317000301810181800080008000C00CC076C0C60
:103180001C181C100C300C300C300C300C3018306B
:1031900018103018700CC00700000000000000007C
:1031A000000000000000000000000000F83FF83FB1
:1031B00008100C08040804040004000200020002C5
:1031C000000100018000800080008000C000C0007D
:1031D000C000C000C000C0000000000000000000EF
:1031E000000000000000000000000000E007300CBC
:1031F00018180C300C300C301C301C107818F004EF
:10320000E003180F0C1E0C1C063806300630063082
:1032100006300C18180CE00300000000000000004D
:10322000000000000000000000000000E00318049F
:103230000C080C1806100630063006300630063032
:103240000E380C341836F031003000180018000821
:103250000C0C0C060C03F001000000000000000044
:10326000000000000000000000000000000000005E
:10327000000000000000000000008001C003C00347
:1032800080010000000000000000000000000000BD
:103290008001C003C00380010000000000000000A6
:1032A000000000000000000000000000000000001E
:1032B000000000000000000000000000C001C0018C
:1032C000C00100000000000000000000000000003D
:1032D0000000C001C001C0018001C000C0000000AA
:1032E00000000000000000000000000000200010AE
:1032F00000080004000200018000400020001000CF
:1033000008000800100020004000800000010002BA
:103310000004000800100020000000000000000071
:10332000000000000000000000000000000000009D
:1033300000000000000000000000FE7F0000000010
:10334000000000000000FE7F000000000000000000
:10335000000000000000000000000000000000006D
:103360000000000000000000000000000400080051
:10337000100020004000800000010002000400084E
:10338000001000100008000400020001800040004E
:1033900020001000080004000000000000000000F1
:1033A000000000000000000000000000C00730180E
:1033B000183008600C601C601C601C600030001835
:1033C000000E0003000100010001000100000000E8
:1033D0008001C003C0038001000000000000000065
:1033E000000000000000000000000000C0076008AE
:1033F000301018200C2B8C4D844CC64CC6446644AF
:10340000664466446646662666266417CC0C0C4005
:10341000082018303018C00700000000000000002D
:10342000000000000000000000000000C001C0011A
:10343000C001C00120032003200320033002100636
:10344000100610061004F80F080C080C080C0418DD
:103450000418041806381F7C00000000000000005B
:10346000000000000000000000000000FE07181C23
:103470001818183018301830183018301818180C60
:10348000F8071818183018201860186018601860AD
:10349000186018301818FE0F00000000000000002F
:1034A000000000000000000000000000C0076038BD
:1034B000103018600C400C400C000600060006009E
:1034C0000600060006000600060006000C400C4040
:1034D000082018103008C00700000000000000009D
:1034E000000000000000000000000000FE03180EB5
:1034F0001818181018301830186018601860186004
:10350000186018601860186018601820183018309B
:10351000181818181806FE0300000000000000002C
:10352000000000000000000000000000FE3F183016
:103530001820184018401800180018081808180C0F
:10354000F80F180C18081808180018001800184070
:10355000184018201830FE3F000000000000000056
:10356000000000000000000000000000FE3F1838CE
:103570001820184018401800180018081808180CCF
:10358000F80F180C18081808180818001800180068
:103590001800180018007E00000000000000000065
:1035A000000000000000000000000000C003300C1C
:1035B000100818180C100C10040006000600060075
:1035C00006000600067E0618061804180C180C18CB
:1035D000081818183004E003000000000000000084
:1035E0000000000000000000000000003FFC0C3064
:1035F0000C300C300C300C300C300C300C300C30EB
:10360000FC3F0C300C300C300C300C300C300C30DB
:103610000C300C300C303FFC0000000000000000BB
:10362000000000000000000000000000F81F800102
:103630008001800180018001800180018001800182
:103640008001800180018001800180018001800172
:10365000800180018001F81F0000000000000000D0
:10366000000000000000000000000000E07F0006F5
:10367000000600060006000600060006000600061A
:10368000000600060006000600060006000600060A
:1036900000060006000600060E060E038E01FC0062
:1036A0000000000000000000000000007E3E180C3A
:1036B0001804180618021801180198009800D8007C
:1036C000B801B8011803180318061806180C180CCE
:1036D000180C181818187E7C00000000000000006C
:1036E0000000000000000000000000007E00180044
:1036F000180018001800180018001800180018000A
:1037000018001800180018001800180018001840B9
:10371000184018201830FE3F000000000000000094
:103720000000000000000000000000000FF01C3846
:103730001C381C381C381C3434343434343434329F
:10374000343264326432643264314431C431C4315D
:10375000C430C43084308FFC000000000000000042
:103760000000000000000000000000000FF81C2016
:103770001C203420342064206420C420C4208421F0
:1037800084210423042304260426042C042C043856
:103790000438043004301F20000000000000000046
:1037A000000000000000000000000000C003300C1A
:1037B000181808100C300C300620066006600660F1
:1037C0000660066006600660066004600C300C301F
:1037D00008101818300CC0030000000000000000A2
:1037E000000000000000000000000000FE0F18189C
:1037F0001830186018601860186018601860183069
:103800001818F807180018001800180018001800F9
:103810001800180018007E000000000000000000E2
:10382000000000000000000000000000C003300C99
:10383000181808100C300C30066006600660066030
:10384000066006600660066006600660E4211C33C0
:103850001C36181E300EC007004C003C003800001B
:10386000000000000000000000000000FE07181C1F
:103870001818183018301830183018301818180C5C
:10388000F80718031803180618061806180C180C61
:10389000180C181818187E780000000000000000AE
:1038A000000000000000000000000000F013181EDF
:1038B0000C1806180610061006000E003C00F80052
:1038C000E003800F001E001800380230023006307E
:1038D00004300C181C0CE40700000000000000007D
:1038E000000000000000000000000000FC3F8C21F0
:1038F00084618241824180018001800180018001D8
:1039000080018001800180018001800180018001AF
:10391000800180018001E00700000000000000003D
:103920000000000000000000000000003F7C0C10C0
:103930000C100C100C100C100C100C100C100C10A7
:103940000C100C100C100C100C100C100C100C1097
:103950000C1018083804E00300000000000000000C
:103960000000000000000000000000003E78183059
:1039700018101810181030083008300830083004BB
:103980006004600460046002C002C002C002C001A2
:103990008001800180008000000000000000000025
:1039A000000000000000000000000000CFF386616E
:1039B0008621842104210C238C238C238C138C13CB
:1039C0008813481258165816580E380E300E300EFE
:1039D000300C30041004100400000000000000004F
:1039E0000000000000000000000000003E7C1810F5
:1039F00018083008300460046002C002C001800171
:103A0000800180018003400340062006200E100C38
:103A1000100C181808383E7C000000000000000060
:103A20000000000000000000000000007E7C1C1070
:103A30001810180830083008300460046004C00210
:103A4000C002C001800180018001800180018001ED
:103A5000800180018001E0070000000000000000FC
:103A6000000000000000000000000000F87F383077
:103A700018300C180418000C0006000600030003A0
:103A800080018001C000C00060006000300018406C
:103A900018600C200C38FE3F000000000000000001
:103AA000000000000000C03FC000C000C000C00017
:103AB000C000C000C000C000C000C000C000C00006
:103AC000C000C000C000C000C000C000C000C000F6
:103AD000C000C000C000C000C000C03F0000000027
:103AE0000000000000000000000018001800100096
:103AF00030002000600060004000C00080008001B5
:103B0000800100010003000200060006000C000C0A
:103B1000000C001800180030003000300060000079
:103B2000000000000000FC0300030003000300038A
:103B3000000300030003000300030003000300036D
:103B4000000300030003000300030003000300035D
:103B500000030003000300030003FC030000000057
:103B600000000000C003C00760041008000000004F
:103B70000000000000000000000000000000000045
:103B80000000000000000000000000000000000035
:103B90000000000000000000000000000000000025
:103BA0000000000000000000000000000000000015
:103BB0000000000000000000000000000000000005
:103BC00000000000000000000000000000000000F5
:103BD0000000000000000000000000000000FFFFE7
:103BE000000000007800C00000010000000000009C
:103BF00000000000000000000000000000000000C5
:103C000000000000000000000000000000000000B4
:103C100000000000000000000000000000000000A4
:103C20000000000000000000000000000000000094
:103C300000000000000000000000E007180C0C1855
:103C40000C180C18001CE01B38180C180618061865
:103C5000061806980C9EF871000000000000000095
:103C60000000000000000000000010001E0018000E
:103C7000180018001800180018009807581C381869
:103C800038301830183018301830183018301830D4
:103C900018103818380CC807000000000000000099
:103CA0000000000000000000000000000000000014
:103CB00000000000000000000000C007700830187D
:103CC00018180C180C000C000C000C000C000C2038
:103CD000182018103008C007000000000000000085
:103CE000000000000000000000000010001E00188E
:103CF00000180018001800180018E01B301C1818D5
:103D000018180C180C180C180C180C180C180C1887
:103D10000818181C307AE0090000000000000000BC
:103D20000000000000000000000000000000000093
:103D300000000000000000000000C003300C10185C
:103D400018100C300C300C30FC3F0C000C000C0038
:103D5000182018107018C0070000000000000000B4
:103D6000000000000000000000000000003E806134
:103D70008060C060C000C000C000FC1FC000C00068
:103D8000C000C000C000C000C000C000C000C00033
:103D9000C000C000C000F80F0000000000000000DC
:103DA0000000000000000000000000000000000013
:103DB00000000000000000000000C077306C101808
:103DC0001818181818181018300CF00718001800D8
:103DD000F803F01F18380C300C300C301818E007BE
:103DE0000000000000000000000010001E0018008D
:103DF000180018001800180018009807580C3818F8
:103E00001818181818181818181818181818181832
:103E10001818181818187E7E000000000000000016
:103E20000000000000000000000000008001C0034E
:103E300080010000000000000001F8018001800105
:103E4000800180018001800180018001800180016A
:103E5000800180018001F81F0000000000000000C8
:103E6000000000000000000000000000001C001E18
:103E7000000C0000000000000008C00F000C000C47
:103E8000000C000C000C000C000C000C000C000CD2
:103E9000000C000C000C000C000C18061802F001BD
:103EA0000000000000000000000010001E001800CC
:103EB00018001800180018001800183E180C1804F4
:103EC000180218019801D801780338031806180C55
:103ED000180C181818387E7C000000000000000044
:103EE000000000000000000000000001F801800157
:103EF00080018001800180018001800180018001BA
:103F000080018001800180018001800180018001A9
:103F1000800180018001F81F000000000000000007
:103F20000000000000000000000000000000000091
:103F300000000000000000000400F73C8E63866172
:103F40008661866186618661866186618661866139
:103F5000866186618661CFF30000000000000000EA
:103F60000000000000000000000000000000000051
:103F70000000000000000000000090075E0C3818F0
:103F800018181818181818181818181818181818B1
:103F90001818181818187E7E000000000000000095
:103FA0000000000000000000000000000000000011
:103FB00000000000000000000000C003300C1018DA
:103FC000181808300C300C300C300C300C300C3021
:103FD00018181818300CC003000000000000000082
:103FE00000000000000000000000000000000000D1
:103FF0000000000000000000000090075E0C381870
:104000001810183018301830183018301830183090
:1040100018183818780C98071800180018007E0037
:104020000000000000000000000000000000000090
:1040300000000000000000000000C013301E181C2B
:1040400018180C180C180C180C180C180C180C1844
:104050000818181C301EE019001800180018007EFF
:104060000000000000000000000000000000000050
:104070000000000000000000000060387E66606103
:10408000E001E0006000600060006000600060002F
:10409000600060006000FE070000000000000000FB
:1040A0000000000000000000000000000000000010
:1040B00000000000000000000000C0276038303021
:1040C000302030207000E003800F001E00380830E0
:1040D000083018303818C80F000000000000000039
:1040E00000000000000000000000000000000000D0
:1040F000800080008000C000E000FC1FC000C00005
:10410000C000C000C000C000C000C000C000C000AF
:10411000C020C0208011000F00000000000000003F
:10412000000000000000000000000000000000008F
:10413000000000000000000010101E1E18181818C3
:1041400018181818181818181818181818181818EF
:104150001818181C307AE009000000000000000068
:10416000000000000000000000000000000000004F
:10417000000000000000000000003E7C1830181015
:10418000181830083008200460046004C002C0021F
:10419000C0038001800180000000000000000000DA
:1041A000000000000000000000000000000000000F
:1041B00000000000000000000000DFF386618421A1
:1041C0008C218C218C13881358135812580E700EA2
:1041D000300E300C3004200400000000000000000D
:1041E00000000000000000000000000000000000CF
:1041F000000000000000000000007C3E3008700855
:104200006004C002C00280018001800340062006D5
:10421000200C101818183E7E00000000000000005E
:10422000000000000000000000000000000000008E
:10423000000000000000000000003E7C1818180874
:10424000100830082004600460044002C0028002AC
:104250008001800180008000800040007C003C00E4
:10426000000000000000000000000000000000004E
:1042700000000000000000000000FC1F0C1C0C0CE3
:104280000406040700038001C001C0006000702024
:10429000302018300C18FC1F000000000000000047
:1042A00000000000003000080004000400040004C6
:1042B00000040004000400040004000400040003DF
:1042C0008001000200040004000400040004000453
:1042D0000004000400040004000400080030000092
:1042E00000010001000100010001000100010001C6
:1042F00000010001000100010001000100010001B6
:1043000000010001000100010001000100010001A5
:104310000001000100010001000100010001000195
:104320000000000018002000400040004000400055
:10433000400040004000400040004000400080013C
:10434000000380004000400040004000400040006A
:1043500040004000400040004000200018000000E5
:1043600000007800C400824102410027001C0000C8
:10437000000000000000000000000000000000003D
:10438000000000000000000000000000000000002D
:10439000000000000000000000000000000000001D
:1043A000000000000000000000000000000000000D
:1043B00000000000000000000000000000000000FD
:1043C00000000000000000000000000000000000ED
:1043D000000000000000000060006000600060005D
:1043E000600060006000400020002000200000000D
:1043F000000000006000600060000000000000009D
:104400000000000060066006300398018800440048
:10441000000000000000000000000000000000009C
:10442000000000000000000000000000000000008C
:104430000000000000000000100210021002100234
:10444000FE07FE0708020801080108010801FE072F
:10445000FE07040104010401040100000000000043
:1044600000000000000040004000F00158034C0331
:10447000CC034C0058007000E000C001C0014003B4
:104480004C035C034C034801F00040004000000076
:1044900000000000000000000E010A0191009100E0
:1044A0009100510051003A00AE03A00250045004A4
:1044B000480448044804840284030000000000000B
:1044C000000000000000000038006C006C006C0070
:1044D0006C006C002C0098071C011A013301330199
:1044E0006301E300C308C6093C07000000000000A8
:1044F000000000000C001C00100010000800040068
:1045000000000000000000000000000000000000AB
:10451000000000000000000000000000000000009B
:104520000000000000040002000180008000400044
:10453000400020002000200020002000200020005B
:1045400040004000800080000001000200040000E4
:10455000000000000200040008001000100020000D
:10456000200040004000400040004000400040006B
:1045700020002000100010000800040002000000CD
:104580000000000000000000000000004000C0002B
:104590004000460C4E0FD001F0015E0F460C40006B
:1045A000400040000000000000000000000000008B
:1045B00000000000000000000000000000004000BB
:1045C0004000400040004000FE0F4000400040001E
:1045D000400040000000000000000000000000005B
:1045E00000000000000000000000000000000000CB
:1045F00000000000000000000000000000000000BB
:10460000000000000C001C00100010000800040056
:10461000000000000000000000000000000000009A
:104620000000000000000000FE0700000000000085
:10463000000000000000000000000000000000007A
:10464000000000000000000000000000000000006A
:10465000000000000000000000000000000000005A
:10466000000000001C001C001C00000000000000F6
:104670000000000000040006000200030001000129
:1046800080008000400040006000200020001000FA
:104690001000080008000C000400060002000000E2
:1046A00000000000000000000000F00098010C0372
:1046B0000C03060606060606060606060606060697
:1046C00006060C030C039801F00000000000000037
:1046D0000000000000000000000040007C006000BE
:1046E00060006000600060006000600060006000CA
:1046F0006000600060006000FC030000000000003B
:1047000000000000000000000000F8008401020327
:1047100006030603000300018001C00060002000C2
:104720001000080204020602FE0300000000000060
:10473000000000000000000000007800C6008601B4
:10474000860180018001C00070008001000100032B
:104750000003060306038601F800000000000000C5
:104760000000000000000000000080018001C00186
:10477000A001A00190018801880184018201FE0F3F
:104780008001800180018001E0070000000000003E
:1047900000000000000000000000FC030400040012
:1047A000040004000400F4008C010403000300036F
:1047B0000603060382018401F800000000000000E7
:1047C00000000000000000000000E00118030C03DE
:1047D0000C0004000600E60116030E060606060697
:1047E000060604060C021803F0000000000000009A
:1047F00000000000000000000000F8070C060402A2
:1048000004010001000180008000400040004000E1
:1048100060006000600060006000000000000000B8
:1048200000000000000000000000F8010C03060674
:10483000060606060C021C03F000C8010C0306065F
:104840000606060606060C03F00100000000000044
:1048500000000000000000000000F0000C010C034C
:10486000060206060606060606078C0678060006F9
:10487000000300030C018C01780000000000000020
:104880000000000000000000000000000000000028
:1048900000000000E000E000E00000000000000078
:1048A00000000000E000E000E00000000000000068
:1048B00000000000000000000000000000000000F8
:1048C0000000000060006000000000000000000028
:1048D0000000000000006000600040002000200098
:1048E0000000000000000000000400020001800041
:1048F0004000200010000800040008001000200004
:1049000040008000000100020004000000000000E0
:104910000000000000000000000000000000000097
:1049200000000000FE07000000000000FE0700007D
:104930000000000000000000000000000000000077
:10494000000000000000000004000800100020002B
:10495000400080000001000200040002000180000D
:1049600040002000100008000400000000000000CB
:1049700000000000000000000000E0031806040C26
:10498000040C0C0C0C0C000780014000400040009F
:1049900000000000E000E000E00000000000000077
:1049A0000000000000000000E00018030C02CC052D
:1049B00064056605A605B604B604B604B604B602D8
:1049C000E4010C040C021803F000000000000000D9
:1049D00000000000000000000000600060005000C7
:1049E000D00090009000880088010801F8010403BD
:1049F00004030402020202060F0F00000000000080
:104A000000000000000000000000FE008C030C030A
:104A10000C030C030C038C01FC000C030C020C06B1
:104A20000C060C060C060C03FE0100000000000042
:104A300000000000000000000000E00318030C0666
:104A40000C0404040600060006000600060006002A
:104A500006040C040C021803F00000000000000023
:104A6000000000000000000000007F008C010C032B
:104A70000C030C060C060C060C060C060C060C06A9
:104A80000C060C030C038C017F00000000000000EA
:104A900000000000000000000000FF030603060401
:104AA0000604060086008600FE008600860086005A
:104AB0000600060406040602FF03000000000000D2
:104AC00000000000000000000000FF0306030604D1
:104AD0000604060086008600FE008600860086002A
:104AE00006000600060006001F000000000000008F
:104AF00000000000000000000000F00018010C029F
:104B00000C0204020600060006000600C60F06039B
:104B100006030C030C031803F00000000000000063
:104B2000000000000000000000000F0F060606064F
:104B30000606060606060606FE070606060606061C
:104B400006060606060606060F0F00000000000017
:104B500000000000000000000000FC036000600096
:104B60006000600060006000600060006000600045
:104B70006000600060006000FC03000000000000B6
:104B800000000000000000000000F807C000C000A6
:104B9000C000C000C000C000C000C000C000C00015
:104BA000C000C000C000C000C000C60066003C00DD
:104BB00000000000000000000000CF038601C600D6
:104BC00046002600160036002E006E004600C60085
:104BD00086008601060106038F0700000000000022
:104BE000000000000000000000001F00060006009A
:104BF0000600060006000600060006000600060085
:104C00000600060406040602FF0300000000000080
:104C10000000000000000000000007078603860374
:104C20008E038E034E034E034A035A035A033A037C
:104C30003203320332031203870700000000000032
:104C4000000000000000000000008E0F0C021C029B
:104C50001C0234023402640264024402C40284026C
:104C600084038403040304031F0200000000000007
:104C700000000000000000000000F00098010C039C
:104C80000C020606060606060606060606060606C2
:104C900006060C020C039801F00000000000000062
:104CA00000000000000000000000FF0006030606F0
:104CB00006060606060606068603FE000600060031
:104CC00006000600060006001F00000000000000AD
:104CD00000000000000000000000F00098010C033C
:104CE0000C02060606060606060606060606060662
:104CF00076064C02CC039801F00080070003000008
:104D000000000000000000000000FF01060306068E
:104D10000606060606060603FE004600C6008600D6
:104D200086010603060306060F0E000000000000C1
:104D300000000000000000000000F8020C03060262
:104D4000060206000E003C00F800E00380030007A6
:104D50000206020606060C03F00100000000000037
:104D600000000000000000000000FE07620461086F
:104D7000610860006000600060006000600060002A
:104D80006000600060006000F801000000000000AA
:104D9000000000000000000000001E070C020C02D2
:104DA0000C020C020C020C020C020C020C020C0293
:104DB0000C020C020C021801F000000000000000C0
:104DC000000000000000000000000F0706020401C0
:104DD00004010C010C018800880098009800500024
:104DE0005000700030002000200000000000000093
:104DF00000000000000000000000F70E6204420402
:104E00004604460464026402E402E4029C029C013B
:104E100098019801880188008800000000000000C7
:104E2000000000000000000000009E070C010801C7
:104E300018019000B0006000200060006000D00009
:104E400090008801080104038E07000000000000A4
:104E5000000000000000000000000F0F0604040224
:104E60000C0208011801B800B0007000600060007A
:104E70006000600060006000F801000000000000B9
:104E800000000000000000000000FC070C02060308
:104E9000020180018000400040002000200010003E
:104EA000180008040C040402FE03000000000000C7
:104EB00000000000E003200020002000200020006F
:104EC00020002000200020002000200020002000E2
:104ED000200020002000200020002000E00300002F
:104EE00000000000000000000400040008000800AA
:104EF0001000100010002000200040004000C00002
:104F00008000800000010001000200020002000495
:104F1000000000007C0040004000400040004000D5
:104F20004000400040004000400040004000400081
:104F30004000400040004000400040007C00000075
:104F40000000600090000801000000000000000068
:104F50000000000000000000000000000000000051
:104F60000000000000000000000000000000000041
:104F70000000000000000000000000000000000031
:104F80000000000000000000000000000000000021
:104F90000000000000000000000000000000FF0F03
:104FA0000000000018006000000000000000000089
:104FB00000000000000000000000000000000000F1
:104FC00000000000000000000000000000000000E1
:104FD00000000000000000000000000000000000D1
:104FE00000000000F0010C030C030003E0031C03AD
:104FF0000E03060306038E0B7C0E0000000000006B
:10500000000000000000000008000E000C000C0072
:105010000C000C00CC013C031C060C060C060C0614
:105020000C060C060C021C03E4010000000000004A
:105030000000000000000000000000000000000070
:1050400000000000F0008C018C01860106000600C3
:10505000060006020C020C01F00000000000000037
:1050600000000000000000000002C0030003000375
:105070000003000378038C030C03060306030603F6
:105080000603060304038C077801000000000000FB
:105090000000000000000000000000000000000010
:1050A00000000000E001180308020C060C06FC07D3
:1050B0000C000C0018041802E001000000000000C1
:1050C00000000000000000000000C0036006300681
:1050D00030003000FE013000300030003000300081
:1050E0003000300030003000FC0100000000000003
:1050F00000000000000000000000000000000000B0
:1051000000000000F007D8068C018C018C0198018A
:10511000F8000C00FC00CC03060306038E03F80025
:10512000000000000000000008000E000C000C0051
:105130000C000C00EC011C030C030C030C030C030F
:105140000C030C030C030C039E070000000000007E
:10515000000000000000000000006000600000008F
:10516000000040007C0060006000600060006000A3
:105170006000600060006000FC03000000000000B0
:1051800000000000000000000000C001C00100009D
:1051900000000001F0018001800180018001800198
:1051A000800180018001800180018001CC007C00B1
:1051B000000000000000000008000E000C000C00C1
:1051C0000C000C008C038C008C004C006C005C000C
:1051D0008C008C010C010C039E07000000000000F5
:1051E000000000000000000040007C006000600043
:1051F00060006000600060006000600060006000AF
:105200006000600060006000FC030000000000001F
:10521000000000000000000000000000000000008E
:10522000000000003707EE0666066606660666069C
:105230006606660666066606FF0F000000000000B0
:10524000000000000000000000000000000000005E
:1052500000000000EE011C030C030C030C030C0304
:105260000C030C030C030C039E070000000000005D
:10527000000000000000000000000000000000002E
:1052800000000000F00098010C0306060606060662
:10529000060606060C030C03F000000000000000E8
:1052A00000000000000000000000000000000000FE
:1052B00000000000EE011C030C060C060C060C0698
:1052C0000C060C060C031C03EC010C000C003E0049
:1052D00000000000000000000000000000000000CE
:1052E0000000000078028C030C030603060306038B
:1052F0000603060304038C03780300030003C007BE
:10530000000000000000000000000000000000009D
:10531000000000009F035806380618001800180007
:105320001800180018001800FF000000000000001E
:10533000000000000000000000000000000000006D
:1053400000000000F0031C030C020C023800F00007
:10535000C003040304038C03FC01000000000000F0
:1053600000000000000000000000000020002000FD
:1053700030003000FE0130003000300030003000DE
:105380003000300030023002E00100000000000078
:10539000000000000000000000000000000000000D
:1053A000000008028E030C030C030C030C030C0317
:1053B0000C030C030C039C077801000000000000A4
:1053C00000000000000000000000000000000000DD
:1053D000000000001E070C020801080118019000DF
:1053E000B000B0006000600020000000000000007D
:1053F00000000000000000000000000000000000AD
:1054000000000000F70E6204460464026402EC022D
:105410009C0198019801980108000000000000001C
:10542000000000000000000000000000000000007C
:1054300000000000BC0718011001B000600060000F
:10544000E0009000080108039E0700000000000033
:10545000000000000000000000000000000000004C
:10546000000000009E07080108010801900090005C
:10547000B0006000600060002000200024001C00DC
:10548000000000000000000000000000000000001C
:1054900000000000FC018401C40044006000200002
:1054A0003000180208020C03FC010000000000009C
:1054B0000000000000038000800080008000800069
:1054C00080008000800040002000400080008000BC
:1054D00080008000800080008000800000030000C9
:1054E00040004000400040004000400040004000BC
:1054F00040004000400040004000400040004000AC
:10550000400040004000400040004000400040009B
:10551000000000000C00100010001000100010002F
:1055200010001000100020004000200010001000AB
:105530001000100010001000100010000C000000FF
:1055400000001C002204C2048003000000000000D0
:10555000000000000000000000000000000000004B
:10556000000000000000000000000000000000003B
:10557000000000000000000000000000000000002B
:10558000000000000000000000000000000000001B
:1055900000000000000000000000000000003000DB
:1055A00030003000300030002000200020002000BB
:1055B000200000000000300030000000000000006B
:1055C0000000D800D8006C00240012000000000089
:1055D00000000000000000000000000000000000CB
:1055E00000000000000000000000000000000000BB
:1055F000840084008400FF0184008400C60042000F
:105600004200FF0142004200420000000000000092
:105610000000000000002000F80024012401A40183
:10562000280030006000A00020012C01240124018A
:10563000F800200020000000000000000000000032
:10564000860049004900290029001900D6002801D8
:105650002801280124012401C200000000000000EC
:1056600000000000000000000C00120012001200F8
:10567000EA004600460025002900390011003201E9
:10568000CC0000000000000000000600060004003E
:105690000200010000000000000000000000000007
:1056A00000000000000000000000000000000000FA
:1056B00000000001800040002000200020001000B9
:1056C000100010001000100010002000200020002A
:1056D0004000800000010000000001000200040002
:1056E0000800080008001000100010001000100052
:1056F000100008000800080004000200010000007B
:105700000000000000000000000020002000260330
:10571000AE0370007000AE032603200020000000DE
:105720000000000000000000000000000000000079
:1057300000001000100010001000FF011000100009
:105740001000100000000000000000000000000039
:105750000000000000000000000000000000000049
:105760000000000000000000000000000000060033
:10577000060004000200010000000000000000001C
:1057800000000000000000000000FE030000000018
:105790000000000000000000000000000000000009
:1057A00000000000000000000000000000000000F9
:1057B00000000000000000000000000000000600E3
:1057C00006000000000000000000000200010001CF
:1057D00080008000C0004000600020003000100009
:1057E0001800080008000400040002000000000087
:1057F0000000000000000000780084008400020126
:10580000020102010201020102010201840084007E
:105810007800000000000000000000000000000010
:1058200010001C00100010001000100010001000EC
:1058300010001000100010007C00000000000000AC
:1058400000000000000000007C0082000201020154
:105850000201800040002000100008000401020145
:10586000FE01000000000000000000000000000039
:105870003C00420082008200400070008000000175
:1058800000010201020182007C0000000000000013
:105890000000000000004000400060005000480090
:1058A0004800440042004200FE0140004000400029
:1058B000F0010000000000000000000000000000F7
:1058C000FC01040004000400040074008C000001CA
:1058D00000010201020182007C00000000000000C3
:1058E0000000000000000000F000080104010400B6
:1058F00002007A0086000201020102010401840014
:10590000780000000000000000000000000000001F
:10591000FE0182004200400020001000100008003C
:10592000080008000800080008000000000000004F
:105930000000000000000000780084000201020165
:105940000201840078008400020102010201840047
:1059500078000000000000000000000000000000CF
:1059600078008400820002010201020184017801B2
:1059700000018000820042003C00000000000000A6
:1059800000000000000000000000000000003000E7
:1059900030000000000000000000000000003000A7
:1059A00030000000000000000000000000000000C7
:1059B00000000000000000001000000000000000D7
:1059C0000000000000000000100010001000100097
:1059D00000000000000080004000200010000800CF
:1059E00004000200040008001000200040008000B5
:1059F00000000000000000000000000000000000A7
:105A0000000000000000FF01000000000000FF0196
:105A10000000000000000000000000000000000086
:105A20000000000000000200040008001000200038
:105A30004000800040002000100008000400020028
:105A400000000000000000000000000000007800DE
:105A500084000201060106010001800040002000D0
:105A60002000200000003000300000000000000096
:105A700000000000000000007800C400F20159019D
:105A80004901450125012501A500D9000201840035
:105A9000780000000000000000000000000000008E
:105AA00010001000280028002800280044004400AE
:105AB0007C00440082008200C7010000000000005A
:105AC00000000000000000003F00420042004200D1
:105AD00022003E00420082008200820082004200DA
