:020000040800F2
:1000000018040020C101000819030008C9020008F3
:100010001503000809020008E104000800000000C0
:100020000000000000000000000000003D03000888
:100030000D020008000000001B0300086104000816
:10004000DB010008DB010008DB010008DB01000820
:10005000DB010008DB010008DB010008DB01000810
:10006000DB010008DB010008DB010008DB01000800
:10007000DB010008DB010008DB010008DB010008F0
:10008000DB010008DB010008DB010008DB010008E0
:10009000DB010008DB010008DB010008DB010008D0
:1000A000DB010008DB010008DB010008DB010008C0
:1000B000DB010008DB010008DB010008DB010008B0
:1000C000DB010008DB010008DB010008DB010008A0
:1000D000DB010008DB010008DB010008DB01000890
:1000E000DB010008DB010008DB010008DB01000880
:1000F000DB010008DB010008DB010008DB01000870
:10010000DB010008DB010008DB010008DB0100085F
:10011000DB010008DB010008DB010008DB0100084F
:10012000DB010008DB010008DB010008DB0100083F
:10013000DB010008DB010008DB010008DB0100082F
:10014000DB010008DB010008DB010008DB0100081F
:10015000DB010008DB010008DB010008DB0100080F
:10016000DB010008DB010008DB010008DB010008FF
:10017000DB010008DB010008DB010008DB010008EF
:10018000DB010008DB010008DB010008DB010008DF
:10019000DB010008DB010008DB010008DB010008CF
:1001A000DB010008DB010008DB010008DFF80CD0F0
:1001B00000F018F800480047050500081804002062
:1001C0000648804706480047FEE7FEE7FEE7FEE7F1
:1001D000FEE7FEE7FEE7FEE7FEE7FEE7790400083C
:1001E000AD010008064C074D06E0E06840F0010351
:1001F00094E8070098471034AC42F6D3FFF7DAFFD3
:10020000B8050008D805000800BFFEE7704701B533
:100210006422009901FB02F000F002F808BD000022
:1002200001B504490098086000BF02480068002832
:10023000FBD108BD14000020F0B50A4600210023C0
:10024000002400BF3DE0012505FA01F3156805EA29
:1002500003049C4234D105684F000326BE40B543D9
:10026000056015794E00B54006683543056015797F
:10027000012D02D01579022D16D185684F00032675
:10028000BE40B543856055794E00B540866835431C
:100290008560456801268E40B5434560456896797E
:1002A0008E40B6B235434560C5684F000326BE4058
:1002B000B543C560D5794E00B540C6683543C560C5
:1002C000491C1029BFD3F0BD00BFFEE71CB50121BA
:1002D000482000F023F84FF48050009001208DF862
:1002E000040000208DF8060001208DF80700002092
:1002F0008DF8050069460548FFF79EFF80200090B5
:1003000069460348FFF798FF1CBD0000000C02403F
:100310000018024000BFFEE77047704729B1064A47
:1003200012680243044B1A6004E0034A12688243D5
:10033000014B1A60704700003038024070470000DF
:100340000CB50020019000904148006840F48030D6
:100350003F49086000BF3E48006800F4003000904C
:100360000198401C0190009818B90198B0F5A04F71
:10037000F1D13748006800F4003010B1012000903E
:1003800001E0002000900098012860D13048403002
:10039000006840F080502E49403108602D480068C8
:1003A00040F440402B49086029480830006828493B
:1003B000083108600846006840F4004008600846BC
:1003C000006840F4A05008602348091F0860081F17
:1003D000006840F08070091F086000BF1C4800687A
:1003E00000F000700028F9D01A48006840F480300E
:1003F0001849086000BF1748406800F480300028A2
:10040000F9D01448006840F400301249086000BF79
:100410001048406800F400300028F9D040F2057020
:100420000E4908600A480830006820F003000849B7
:10043000083108600846006840F00200086000BF0C
:1004400003480830006800F00C000828F8D10CBD03
:100450000038024000700040195A4007003C02403A
:100460000448006820B103480068401E0149086044
:10047000704700001400002010B51548006840F4D3
:100480007000134908601348006840F001001149EA
:10049000086000200F49083108600E4800680E49C6
:1004A00008400C4908600D48091D0860081F0068D5
:1004B00020F48020091F0860002006490C310860E4
:1004C000FFF73EFF4FF0006001498039086010BD22
:1004D00088ED00E000380240FFFFF6FE10300024F7
:1004E00000BFFEE702E008C8121F08C1002AFAD1C7
:1004F00070477047002001E001C1121F002AFBD1A4
:100500007047000026480068264AB0FBF2F1481EFA
:10051000B0F1807F00D31BE0481E4FF0E022506115
:1005200050170F22002807DA13071D0E1E4B00F08C
:100530000F04241F1D5503E013071C0E1B4B1C54F6
:1005400000BF00204FF0E02290610720106100BF43
:10055000FFF7BCFE23E01648008840F480501449A1
:1005600008801448008840F08000124908804FF449
:100570007A70FFF74CFE0E48801E008840F48050D1
:100580000B49891E08800B48801E008840F08000BF
:100590000849891E08804FF47A70FFF738FEDAE7C1
:1005A00000000020A086010018ED00E000E400E05B
:1005B0001A0C02401A180240D8050008000000205A
:1005C00018000000E4040008F005000818000020EE
:1005D00000040000F40400080095BA0A00000000BE
:1005E00000000000010203040607080900000000E3
:04000005080001AD41
:00000001FF
