:020000040800F2
:1000000030040020C101000825050008D3040008C1
:100010002105000809020008F51100080000000091
:10002000000000000000000000000000E90E0008D1
:100030000D02000800000000270500080D10000850
:10004000DB010008DB010008DB010008DB01000820
:10005000DB010008DB010008DB010008DB01000810
:10006000DB010008DB010008DB010008DB01000800
:10007000DB010008DB010008DB010008DB010008F0
:10008000DB010008DB010008DB010008DB010008E0
:10009000DB010008DB010008DB010008DB010008D0
:1000A000DB010008DB010008DB010008DB010008C0
:1000B000DB010008DB010008DB010008DB010008B0
:1000C000DB010008DB010008DB010008DB010008A0
:1000D000DB010008DB010008DB010008DB01000890
:1000E000DB010008DB010008DB010008DB01000880
:1000F000DB010008DB010008DB010008DB01000870
:10010000DB010008DB010008DB010008DB0100085F
:10011000DB010008DB010008DB010008DB0100084F
:10012000DB010008DB010008DB010008DB0100083F
:10013000DB010008DB010008DB010008DB0100082F
:10014000DB010008DB010008DB010008DB0100081F
:10015000DB010008DB010008DB010008DB0100080F
:10016000DB010008DB010008DB010008DB010008FF
:10017000DB010008DB010008DB010008DB010008EF
:10018000DB010008DB010008DB010008DB010008DF
:10019000DB010008DB010008DB010008DB010008CF
:1001A000DB010008DB010008DB010008DFF80CD0F0
:1001B00000F018F800480047B11200083004002091
:1001C0000648804706480047FEE7FEE7FEE7FEE7F1
:1001D000FEE7FEE7FEE7FEE7FEE7FEE72510000884
:1001E000AD010008064C074D06E0E06840F0010351
:1001F00094E8070098471034AC42F6D3FFF7DAFFD3
:10020000B8130008D813000800BFFEE7704701B517
:100210006422009901FB02F000F002F808BD000022
:1002200001B504490098086000BF02480068002832
:10023000FBD108BD2400002010B502460020002399
:10024000102A03D14FF02044636E0FE0B2F5807F97
:1002500002D10A4C236809E0B2F5805F03D1074C54
:100260002034236802E0054CD434236803EA0104F7
:100270008C4201D0002000E0012010BD840000A0CD
:100280000021D0E900231A4383685B1E42EA43122F
:10029000C36842EA4321014A11607047500100A03F
:1002A00070B500220021002300240568AD00A5F1EF
:1002B000C045D5F840216FF30E02D0E90156354311
:1002C000C668354306693543466935438669354313
:1002D000C6693543066A3543466A35432A4305688D
:1002E00035B90568AD00A5F1C045C5F8402111E05C
:1002F0003B4D2B686FF30E03D0E907563543466A32
:1003000035432B43364D2B600568AD00A5F1C04544
:10031000C5F84021056875BB314D0835066855F8AC
:10032000261001F07041856A2D686D1E866A766818
:10033000761E45EA0616856AAD686D1E46EA0526F4
:10034000856AED686D1E46EA0536856A2D8A6D1E42
:1003500046EA0546856AAD8A6D1E46EA0556856AF7
:100360002D7E6D1E46EA056529431D4D083506683C
:1003700045F8261032E0FFE7194D0835066855F8B4
:10038000261001F07041856A2D686D1E866A7668B8
:10039000761E45EA0616856AAD686D1E46EA052694
:1003A000856A2D8A6D1E46EA054529430C4D0835A0
:1003B0002C6804F07044856AED686D1E2E03856A12
:1003C000AD8A6D1E46EA05552C434FF02045C5F811
:1003D0004841034D0835066845F8261070BD0000F9
:1003E000400100A00449096841EA40014FF0204261
:1003F000C2F8541170470000540100A0F0B50A463D
:1004000000210023002400BF3DE0012505FA01F38F
:10041000156805EA03049C4234D105684F000326A1
:10042000BE40B543056015794E00B54006683543BA
:1004300005601579012D02D01579022D16D1856838
:100440004F000326BE40B543856055794E00B54048
:10045000866835438560456801268E40B543456012
:10046000456896798E40B6B235434560C5684F0001
:100470000326BE40B543C560D5794E00B540C66879
:100480003543C560491C1029BFD3F0BDF0B500232A
:1004900000244D07ED0E02FA05F3CE1000F1200501
:1004A00055F826504E07F70E0F26BE40B543CF1025
:1004B00000F1200646F82750CE1000F1200555F82F
:1004C000265045EA0304CE1000F1200545F82640E9
:1004D000F0BD00BFFEE700001CB50121482000F080
:1004E00023F84FF48050009001208DF80400002084
:1004F0008DF8060001208DF8070000208DF805001A
:1005000069460548FFF77AFF802000906946034856
:10051000FFF774FF1CBD0000000C024000180240F1
:1005200000BFFEE77047704729B1064A12680243D0
:10053000044B1A6004E0034A12688243014B1A60BC
:10054000704700003038024029B1064A1268024361
:10055000044B1A6004E0034A12688243014B1A609C
:10056000704700003838024029B1064A1268024339
:10057000044B1A6004E0034A12688243014B1A607C
:100580007047000044380240F0B5002100220024EA
:10059000022500260223324F3F6807F00C0121B1EB
:1005A000042905D0082937D105E02E4F076036E031
:1005B0002D4F076033E02A4F3F1F3F68C7F3805637
:1005C000274F3F1F3F6807F03F036EB1264FB7FB31
:1005D000F3F7DFF88CC0ACF1040CDCF800C0CCF30E
:1005E000881C07FB0CF40CE01E4FB7FBF3F7DFF899
:1005F00070C0ACF1040CDCF800C0CCF3881C07FB25
:100600000CF4174F3F1F3F68C7F301477F1C7D0065
:10061000B4FBF5F7076002E0124F076000BF00BFB0
:100620000F4F3F6807F0F0010909104F7A5C076827
:10063000D74047600A4F3F6807F4E051890A0B4FE3
:100640007A5C4768D7408760054F3F6807F4604190
:10065000490B064F7A5C4768D740C760F0BD000081
:10066000083802400024F40040787D011400002086
:100670001CB501214FF4FE70FFF756FF02208DF8E4
:10068000040003208DF8050000208DF806008DF889
:1006900007000C220021FE48FFF7F8FE0C22012182
:1006A000FB48FFF7F3FE0C220221F948FFF7EEFEAC
:1006B0000C220321F648FFF7E9FE0C220421F4483E
:1006C000FFF7E4FE0C220521F148FFF7DFFE0C22C4
:1006D0001146EF48FFF7DAFE0C220D21EC48FFF738
:1006E000D5FE0C220E21EA48FFF7D0FE0C220F2186
:1006F000E748FFF7CBFE0C220021E648FFF7C6FED5
:100700000C220121E348FFF7C1FE01200090694659
:10071000DF48FFF773FE022000906946DC48FFF7D0
:100720006DFE042000906946D948FFF767FE082057
:1007300000906946D648FFF761FE10200090694698
:10074000D348FFF75BFE202000906946D048FFF7B2
:1007500055FE4FF4805000906946CD48FFF74EFE9D
:100760004FF4005000906946C948FFF747FE4FF428
:10077000804000906946C648FFF740FE4FF40040B5
:1007800000906946C248FFF739FE01200090694693
:10079000C048FFF733FE022000906946BD48FFF7CE
:1007A0002DFE0C220E21BC48FFF770FE0C220F21FB
:1007B000B948FFF76BFE0C220021B748FFF766FE31
:1007C0000C220121B448FFF761FE0C220721B34837
:1007D000FFF75CFE0C220821B048FFF757FE0C2201
:1007E0000921AE48FFF752FE0C220A21AB48FFF761
:1007F0004DFE0C220B21A948FFF748FE0C221146A2
:10080000A648FFF743FE0C220D21A448FFF73EFE49
:100810000C220E21A148FFF739FE0C220F219F4820
:10082000FFF734FE0C2208219B48FFF72FFE0C2215
:1008300009219948FFF72AFE0C220A219648FFF762
:1008400025FE0C2208219648FFF720FE0C220921E4
:100850009348FFF71BFE0C220A219148FFF716FE72
:100860000C220B218E48FFF711FE0C2211468C48FA
:10087000FFF70CFE0C220D218948FFF707FE0C2222
:100880000E218748FFF702FE0C220F218448FFF754
:10089000FDFD0C2200218348FFF7F8FD0C22012109
:1008A0008048FFF7F3FD0C2202217E48FFF7EEFDA2
:1008B0000C2203217B48FFF7E9FD0C220621794831
:1008C000FFF7E4FD0C2207217648FFF7DFFD0C223D
:1008D00009217448FFF7DAFD0C220A217148FFF75D
:1008E000D5FD4FF48040009069466B48FFF786FDC8
:1008F0004FF40040009069466748FFF77FFD0120F4
:10090000009069466448FFF779FD0220009069462F
:100910006148FFF773FD8020009069465F48FFF74C
:100920006DFD4FF48070009069465C48FFF766FDEE
:100930004FF40070009069465848FFF75FFD4FF490
:100940008060009069465548FFF758FD4FF40060FD
:10095000009069465148FFF751FD4FF480500090D8
:1009600069464E48FFF74AFD4FF400500090694633
:100970004A48FFF743FD4FF48040009069464748DE
:10098000FFF73CFD4FF40040009069464348FFF7F5
:1009900035FD4FF48070009069463F48FFF72EFD0B
:1009A0004FF40070009069463B48FFF727FD4FF475
:1009B0008060009069463848FFF720FD4FF4807052
:1009C000009069463648FFF719FD4FF4007000901B
:1009D00069463348FFF712FD4FF480600090694686
:1009E0002F48FFF70BFD4FF40060009069462C483C
:1009F000FFF704FD4FF48050009069462848FFF748
:100A0000FDFC4FF40050009069462548FFF7F6FCC6
:100A10004FF48040009069462148FFF7EFFC4FF407
:100A20000040009069461E48FFF7E8FC0120009056
:100A300069461C48FFF7E2FC02200090694619480D
:100A4000FFF7DCFC0420009069461648FFF7D6FC4F
:100A50000820009069461348FFF7D0FC4020009022
:100A600069461048FFF7CAFC8020009069460D488F
:100A7000FFF7C4FC4FF40070009069460948FFF787
:100A8000BDFC4FF480600090694606480CE0000011
:100A90000014024000180240000C02400010024006
:100AA000001C024000200240FFF7A8FC0C22062197
:100AB0004248FFF7EBFC0C2204214148FFF7E6FC1B
:100AC0000C2205213E48FFF7E1FC0C2200213D48A5
:100AD000FFF7DCFC0C220B213B48FFF7D7FC0C2274
:100AE0000F213748FFF7D2FC0C2208213448FFF7CA
:100AF000CDFC0C2207213148FFF7C8FC0C22012154
:100B00003248FFF7C3FC0C2200213048FFF7BEFC3F
:100B10000C2204212E48FFF7B9FC0C2205212C4899
:100B2000FFF7B4FC4020009069462448FFF766FCBC
:100B30001020009069462248FFF760FC20200090BA
:100B400069461F48FFF75AFC0120009069461D487E
:100B5000FFF754FC4FF40060009069461A48FFF715
:100B60004DFC4FF40040009069461548FFF746FCE5
:100B70004FF48070009069461148FFF73FFC8020D9
:100B8000009069460D48FFF739FC02200090694645
:100B90000E48FFF733FC0120009069460B48FFF731
:100BA0002DFC1020009069460948FFF727FC202003
:100BB000009069460648FFF721FC1CBD001C02405E
:100BC00000180240000802400014024000100240D9
:100BD0000020024010B592B0002401210846FFF722
:100BE000B3FCFFF745FD0220009007200190042090
:100BF00002900620039002200490059006900120A8
:100C00000790002008900420099020200A9040209E
:100C10000B904FF4C0700C9000200D904FF40060CA
:100C20000E9040000F9040001090CDF844D007A8DF
:100C3000FFF736FB00F00DF800BF05E00021A00033
:100C4000A0F140500160641CB4F5800FF6D312B0DF
:100C500010BD1FB500240120009008200190012044
:100C600002900020039000BF20210120FFF7E4FA4A
:100C70000028F9D16846FFF703FB012000F022F9B4
:100C80000220009008200190012002900020039093
:100C900002E06846FFF7F4FA20210120FFF7CCFAC2
:100CA0000028F6D1012000F00DF903200090082063
:100CB000019002900020039000BF20210120FFF747
:100CC000BBFA0028F9D16846FFF7DAFA40F231247E
:100CD000042000900820019001200290039400BF9E
:100CE00020210120FFF7A8FA0028F9D16846FFF774
:100CF000C7FA40F26A50FFF775FB00BF20210120C0
:100D0000FFF79AFA0028F9D11FBD000070B5002442
:100D1000002626A000F092FA2AA000F08FFA00BF69
:100D200004E0A000A0F140500460641CB4F5800F02
:100D3000F7D32EA000F082FA00240BE0A000A0F16F
:100D400040500668A64204D030A000F077FA002098
:100D500070BD641CB4F5800FF0D331A000F06EFAC2
:100D6000002403E0A4F140500470641CFF2CF9D36C
:100D70001EA000F063FA00240EE0A4F140500578B4
:100D8000E0B2A84207D032A000F058FA38A000F034
:100D900055FA0020DCE7641CFF2CEED33BA000F0EA
:100DA0004DFA40A000F04AFA0120D1E753544D33E8
:100DB000324634323920534452414DB2E2CAD40D46
:100DC0000A000000B2E2CAD4BFAACABCA3ACD2D403
:100DD0003332CEBBCAFDBEDDBFEDB6C8D0B4C8EB62
:100DE000CAFDBEDD2E2E2E0D0A000000D0B4C8EBC9
:100DF000CDEAB1CFA3ACB6C1C8A1CAFDBEDDB2A2D7
:100E0000B1C8BDCF2E2E2E0D0A0000005344524112
:100E10004DB2E2CAD4CAA7B0DCA3A1A3A10D0A00B7
:100E20003332CEBBCAFDBEDDBFEDB6C8B6C1D0B44D
:100E3000CDA8B9FDA3ACD2D438CEBBCAFDBEDDBFB0
:100E4000EDB6C8D0B4C8EBCAFDBEDD0D0A00000087
:100E500038CEBBCAFDBEDDBFEDB6C8B6C1D0B4B298
:100E6000E2CAD4CAA7B0DCA3A1A3A10D0A00000066
:100E7000C7EBBCECB2E94E424C30BACD4E424C31DD
:100E8000B5C4C1ACBDD30D0A0000000038CEBBCA4A
:100E9000FDBEDDBFEDB6C8B6C1D0B4CDA8B9FD0D5D
:100EA0000A000000534452414DB6C1D0B4B2E2CA68
:100EB000D4CDA8B9FDA3ACCFB5CDB3D5FDB3A30DAB
:100EC0000A00000001B581B000200090054901989A
:100ED0004843009002E00098401E009000980028CF
:100EE000F9D10CBDA0860100704700000CB50020B0
:100EF000019000904148006840F480303F4908600C
:100F000000BF3E48006800F4003000900198401C8B
:100F10000190009818B90198B0F5A04FF1D1374869
:100F2000006800F4003010B10120009001E00020C2
:100F300000900098012860D130484030006840F0AF
:100F400080502E49403108602D48006840F44040F0
:100F50002B49086029480830006828490831086092
:100F60000846006840F4004008600846006840F405
:100F7000A05008602348091F0860081F006840F05F
:100F80008070091F086000BF1C48006800F00070F6
:100F90000028F9D01A48006840F4803018490860E9
:100FA00000BF1748406800F480300028F9D014488A
:100FB000006840F400301249086000BF10484068E3
:100FC00000F400300028F9D040F205700E490860A6
:100FD0000A480830006820F003000849083108601A
:100FE0000846006840F00200086000BF034808306F
:100FF000006800F00C000828F8D10CBD0038024051
:1010000000700040195A4007003C02400448006844
:1010100020B103480068401E014908607047000085
:101020002400002010B51548006840F470001349F2
:1010300008601348006840F0010011490860002072
:101040000F49083108600E4800680E4908400C49F5
:1010500008600D48091D0860081F006820F4802002
:10106000091F0860002006490C310860FFF73EFFA9
:101070004FF0006001498039086010BD88ED00E044
:1010800000380240FFFFF6FE103000241CB501219D
:101090000846FFF749FA02208DF8040000208DF879
:1010A000060001208DF8070000208DF805004FF4A0
:1010B0000070009069460A48FFF7A0F94FF480607D
:1010C000009069460648FFF799F90722092104486C
:1010D000FFF7DCF907220A210148FFF7D7F91CBD09
:1010E0000000024021B1828942F40052828104E072
:1010F00082894DF6FF731A408281704702460020B4
:10110000B1F5007F00D100BF13880B400BB1012067
:1011100000E00020704700002DE9FF4705460E461D
:101120000024A14600BFA046B08900B100BF2C8AB0
:1011300024F44054F08804432C82AC8941F20C60C2
:101140008443B08831890843718908430443AC81E2
:10115000AC8A24F44074B0890443AC826846FFF73B
:1011600013FA2048854202D01F48854202D1DDF89B
:101170000C9001E0DDF80890A88900F4004040B12F
:1011800009EBC90000EB091031684900B0FBF1F729
:1011900007E009EBC90000EB091031688900B0FBDA
:1011A000F1F76420B7FBF0F004012009642101FB92
:1011B0001078A88900F4004040B1322000EBC8004C
:1011C000B0FBF1F000F00700044308E0322000EB30
:1011D00008106421B0FBF1F000F00F0004432C81F3
:1011E000BDE8FF870010014000140140C1F3080270
:1011F0008280704700BFFEE71FB501211020FFF776
:10120000B3F9FFF743FF4FF4E13000900020ADF851
:101210000400ADF80600ADF808000C20ADF80A0097
:101220000020ADF80C0069460348FFF775FF012167
:101230000148FFF757FF1FBD00100140014A024956
:1012400000F013B88D1200082800002002E008C842
:10125000121F08C1002AFAD170477047002001E030
:1012600001C1121F002AFBD170472DE9F04116463B
:101270000F460446002503E03946B047641C6D1C48
:1012800020780028F8D12846BDE8F08170B50446E2
:101290000D46E1B20548FFF7A9FF00BF80210348D2
:1012A000FFF72CFF0028F9D0204670BD0010014048
:1012B0002F4800682F4AB0FBF2F1481EB0F1807F42
:1012C00000D31BE0481E4FF0E022506150170F2260
:1012D000002807DA13071D0E274B00F00F04241F08
:1012E0001D5503E013071C0E244B1C5400BF0020A7
:1012F0004FF0E02290610720106100BFFFF77CFFF4
:10130000FFF768FCFFF7E8F8FFF700FD18B11CA035
:10131000FFF794FF02E01FA0FFF790FF26E022A056
:10132000FFF78CFF2248008840F480502049088055
:101330002048008840F080001E4908804FF47A70F1
:10134000FEF765FF1A48801E008840F48050184957
:10135000891E08801748801E008840F080001549CB
:10136000891E08804FF47A70FEF751FFD7E700001E
:1013700000000020A086010018ED00E000E400E07D
:10138000534452414D20696E6974205375636365FF
:1013900073730A00534452414D20696E697420668C
:1013A00061696C0A000000006B616B610A0000005B
:1013B0001A0C02401A180240D8130008000000203E
:1013C0002C0000004C120008041400082C0000201F
:1013D000040400005C1200080095BA0A0000000036
:1013E00000000000010203040607080900000000D5
:1013F00001020304010203040607080900000000BB
:0414000000000000E8
:04000005080001AD41
:00000001FF
